{
  "contractName": "Arrays",
  "abi": [
    {
      "constant": false,
      "inputs": [],
      "name": "testArrayOps",
      "outputs": [],
      "payable": false,
      "stateMutability": "nonpayable",
      "type": "function"
    }
  ],
  "bytecode": "0x60606040526040805190810160405280600160ff168152602001600260ff1681525060009060026100319291906100a0565b5060017f010000000000000000000000000000000000000000000000000000000000000002600560006101000a81548160ff02191690837f010000000000000000000000000000000000000000000000000000000000000090040217905550341561009b57600080fd5b61010a565b82600381019282156100d4579160200282015b828111156100d3578251829060ff169055916020019190600101906100b3565b5b5090506100e191906100e5565b5090565b61010791905b808211156101035760008160009055506001016100eb565b5090565b90565b61080b806101196000396000f300606060405260043610610041576000357c0100000000000000000000000000000000000000000000000000000000900463ffffffff1680639afdc46c14610046575b600080fd5b341561005157600080fd5b61005961005b565b005b6100636103d3565b61006b6103e7565b6100736103d3565b60086040518059106100825750595b9080825280602002602001820160405250600490805190602001906100a892919061040e565b50606060405190810160405280600160000b60000b8152602001600260000b8152602001600360000b81525060039060036100e49291906104b4565b5060086040518059106100f45750595b9080825280602002602001820160405250925060087f010000000000000000000000000000000000000000000000000000000000000002600a600081548110151561013b57fe5b90600052602060002090602091828204019190066101000a81548160ff02191690837f01000000000000000000000000000000000000000000000000000000000000009004021790555060097f010000000000000000000000000000000000000000000000000000000000000002600c600681546001816001161561010002031660029004811015156101ca57fe5b8154600116156101e95790600052602060002090602091828204019190065b601f036101000a81548160ff021916907f010000000000000000000000000000000000000000000000000000000000000084040217905550600a600c81610230919061055e565b50600c805460018160011615610100020316600290048060010182816102569190610627565b91908154600116156102775790600052602060002090602091828204019190065b60017f01000000000000000000000000000000000000000000000000000000000000000290919091601f036101000a81548160ff021916907f01000000000000000000000000000000000000000000000000000000000000008404021790555050606060405190810160405280600160ff168152602001600260ff168152602001600360ff1681525060009060036103109291906106f0565b5060408051908101604052806001815260200160028152509150600082600060028110151561033b57fe5b602002018181525050600182600160028110151561035557fe5b602002018181525050600260405180591061036d5750595b90808252806020026020018201604052509050600181600081518110151561039157fe5b9060200190602002019060ff16908160ff168152505060028160018151811015156103b857fe5b9060200190602002019060ff16908160ff1681525050505050565b602060405190810160405280600081525090565b60408051908101604052806002905b60008152602001906001900390816103f65790505090565b82805482825590600052602060002090601f016020900481019282156104a35791602002820160005b8382111561047457835183826101000a81548160ff0219169083151502179055509260200192600101602081600001049283019260010302610437565b80156104a15782816101000a81549060ff0219169055600101602081600001049283019260010302610474565b505b5090506104b09190610735565b5090565b82805482825590600052602060002090601f0160209004810192821561054d5791602002820160005b8382111561051e57835183826101000a81548160ff021916908360000b60ff16021790555092602001926001016020816000010492830192600103026104dd565b801561054b5782816101000a81549060ff021916905560010160208160000104928301926001030261051e565b505b50905061055a9190610765565b5090565b81546001816001161561010002031660029004825481601f106105b95782601f1061059e575b826008026101000360020a80910402828001178355610622565b60ff1916836000526020600020558180016001018355610622565b82601f106105e9575082600052602060002080549082601f01602090048101906105e39190610795565b50610584565b5081800160010183558181151161062257601f016020900481601f016020900483600052602060002091820191016106219190610795565b5b505050565b81546001816001161561010002031660029004825481601f106106825782601f10610667575b826008026101000360020a809104028280011783556106eb565b60ff19168360005260206000205581800160010183556106eb565b82601f106106b2575082600052602060002080549082601f01602090048101906106ac9190610795565b5061064d565b508180016001018355818115116106eb57601f016020900481601f016020900483600052602060002091820191016106ea9190610795565b5b505050565b8260038101928215610724579160200282015b82811115610723578251829060ff16905591602001919060010190610703565b5b50905061073191906107ba565b5090565b61076291905b8082111561075e57600081816101000a81549060ff02191690555060010161073b565b5090565b90565b61079291905b8082111561078e57600081816101000a81549060ff02191690555060010161076b565b5090565b90565b6107b791905b808211156107b357600081600090555060010161079b565b5090565b90565b6107dc91905b808211156107d85760008160009055506001016107c0565b5090565b905600a165627a7a7230582091ace8737b5aa77d47a5c6d19d58c6ba9cf3f206e76898389062919a9ccf70fa0029",
  "source": "pragma solidity ^0.4.17;\r\n\r\ncontract Arrays {\r\n\r\n  // Elementary type array in storage\r\n  int[3]     staticIntArray = [1,2];    //Last element set to 0\r\n  int8[]     dynamicIntArray;\r\n  bool[]     dynamicBoolArray;\r\n\r\n  // Byte type storage\r\n  // Newer version of compiler requires data to be specified in hex otherwise you get a warning - Aug 8, 2017\r\n  byte    byteType = 0x01; \r\n\r\n  // byte array - fixed length\r\n  byte[120] bigArray;\r\n\r\n  // Dynamic byte array in storage\r\n  byte[]    byteData;\r\n  // Fixed length byte array\r\n  bytes8    bytes8Data;\r\n  // Dynamic byte array\r\n  bytes     bytesData;\r\n\r\n\r\n\r\n  function testArrayOps() public {\r\n\r\n    // Allocate memory for 8 elements to the dynamic bool storage array\r\n    dynamicBoolArray = new bool[](8);\r\n\r\n    // Allocate memory and initialize elements in the int array\r\n    // Explicit conversion needed from uint8 to int8\r\n    // Later versions of compiler requires the 1st element to be typecasted - August 9, 2017\r\n    dynamicIntArray = [int8(1),2,3];\r\n\r\n    // This is good\r\n    uint8[] memory memoryArray;\r\n    // Allocation with assignment not allowed for memory arrays\r\n    // memoryArray = [1,2,3];\r\n    memoryArray = new uint8[](8);\r\n    // This will give a compile error - \r\n    // push() not available for memory array\r\n    // memoryArray.push(1);\r\n    // memoryArray.length=6;\r\n    \r\n    // This is OK\r\n    byteData[0] = 0x08;\r\n\r\n    // This is not allowed - its READ Only\r\n    // bytes8Data[6] = 0;\r\n\r\n    // This is OK\r\n    bytesData[6] = 0x09;\r\n\r\n    // Dynamic array - bytes - These are OK\r\n    bytesData.length = 10;\r\n    bytesData.push(1);\r\n\r\n\r\n    /*** Examples of array initialization with assignment below */\r\n    // Static storage array assignment is OK\r\n    // Compile time size check is carried out \r\n    // so assignment to [1,2,3,4] will fail below\r\n    staticIntArray = [1,2,3];\r\n\r\n\r\n    // Static memory array\r\n    uint[2] memory  staticMemoryArray;\r\n    // This is  allowed - make sure the type is good\r\n    staticMemoryArray = [uint(1),2];\r\n\r\n    // This is allowed\r\n    staticMemoryArray[0] = 0;\r\n    staticMemoryArray[1] = 1;\r\n\r\n    uint8[] memory dynamicMemoryArray;\r\n    // Assignment of static array to dynamic NOT allowed\r\n    // dynamicMemoryArray = [uint8(1),2];\r\n\r\n    // But following is fine\r\n    dynamicMemoryArray = new uint8[](2);\r\n    dynamicMemoryArray[0] = 1;\r\n    dynamicMemoryArray[1] = 2;\r\n\r\n  \r\n  }\r\n}\r\n",
  "sourcePath": "C:\\Users\\Rajeev\\Documents\\Course\\Blockchain Course\\workspace\\Blockchain-Course-Basic-Solidity\\contracts\\Arrays.sol",
  "compiler": {
    "name": "solc",
    "version": "0.4.19+commit.c4cbbb05.Emscripten.clang"
  },
  "schemaVersion": "2.0.0",
  "updatedAt": "2018-03-02T15:17:28.518Z"
}