{
  "contractName": "Calculator",
  "abi": [
    {
      "constant": false,
      "inputs": [
        {
          "name": "num",
          "type": "uint256"
        }
      ],
      "name": "addToNumber",
      "outputs": [],
      "payable": false,
      "type": "function",
      "stateMutability": "nonpayable"
    },
    {
      "constant": false,
      "inputs": [
        {
          "name": "num",
          "type": "uint256"
        }
      ],
      "name": "substractNumber",
      "outputs": [],
      "payable": false,
      "type": "function",
      "stateMutability": "nonpayable"
    },
    {
      "constant": false,
      "inputs": [
        {
          "name": "num",
          "type": "uint256"
        }
      ],
      "name": "multiplyWithNumber",
      "outputs": [],
      "payable": false,
      "type": "function",
      "stateMutability": "nonpayable"
    },
    {
      "constant": false,
      "inputs": [],
      "name": "getResult",
      "outputs": [
        {
          "name": "",
          "type": "uint256"
        }
      ],
      "payable": false,
      "type": "function",
      "stateMutability": "nonpayable"
    },
    {
      "constant": false,
      "inputs": [
        {
          "name": "num",
          "type": "uint256"
        }
      ],
      "name": "divideByNumber",
      "outputs": [],
      "payable": false,
      "type": "function",
      "stateMutability": "nonpayable"
    },
    {
      "inputs": [],
      "payable": false,
      "type": "constructor",
      "stateMutability": "nonpayable"
    }
  ],
  "bytecode": "0x6060604052600a600055341561001457600080fd5b6101ad806100236000396000f30060606040526004361061006d576000357c0100000000000000000000000000000000000000000000000000000000900463ffffffff16806306ccd230146100725780630b7e4e7f14610095578063b4679b06146100b8578063de292789146100db578063f5cb911d14610104575b600080fd5b341561007d57600080fd5b6100936004808035906020019091905050610127565b005b34156100a057600080fd5b6100b66004808035906020019091905050610139565b005b34156100c357600080fd5b6100d9600480803590602001909190505061014b565b005b34156100e657600080fd5b6100ee61015d565b6040518082815260200191505060405180910390f35b341561010f57600080fd5b6101256004808035906020019091905050610166565b005b80600080828254019250508190555050565b80600080828254039250508190555050565b80600080828254029250508190555050565b60008054905090565b8060008082825481151561017657fe5b0492505081905550505600a165627a7a72305820ed116ca1d3c5c9866296410c19e46550576b29f48453641ec7f067ca71f4b2860029",
  "source": "/**\r\n * Skeleton code for Calculator\r\n * This contract is for demonstrating the use of Truffle framework.\r\n **/\r\n\r\npragma solidity ^0.4.6;\r\n\r\ncontract Calculator {\r\n\r\n  // Result of the operation are always stored in this variable\r\n  uint result=10;\r\n\r\n  function Calculator() {\r\n    // constructor\r\n    \r\n  }\r\n\r\n  // returns the result\r\n  function getResult() returns (uint){\r\n    return result;\r\n  }\r\n\r\n  // result = result + num\r\n  function addToNumber(uint num)  {\r\n    result += num;\r\n  }\r\n\r\n  // result = result - num\r\n  function substractNumber(uint num)  {\r\n    result -= num;\r\n  }\r\n\r\n  // result = result * num\r\n  function multiplyWithNumber(uint num) {\r\n    result *= num;\r\n  }\r\n\r\n  // result = result / num\r\n  function divideByNumber(uint num) {\r\n    result /= num;\r\n  }\r\n\r\n}\r\n",
  "sourcePath": "C:\\Users\\Rajeev\\Documents\\Course\\Blockchain Course\\workspace\\Blockchain-Course-Basic-Solidity\\contracts\\Calculator.sol",
  "compiler": {
    "name": "solc",
    "version": "0.4.18+commit.9cf6e910.Emscripten.clang"
  },
  "schemaVersion": "1.0.1",
  "updatedAt": "2018-01-22T19:34:44.840Z"
}