{
  "contractName": "Calculator",
  "abi": [
    {
      "inputs": [],
      "payable": false,
      "stateMutability": "nonpayable",
      "type": "constructor"
    },
    {
      "constant": true,
      "inputs": [],
      "name": "getResult",
      "outputs": [
        {
          "name": "",
          "type": "uint256"
        }
      ],
      "payable": false,
      "stateMutability": "view",
      "type": "function"
    },
    {
      "constant": false,
      "inputs": [
        {
          "name": "num",
          "type": "uint256"
        }
      ],
      "name": "addToNumber",
      "outputs": [],
      "payable": false,
      "stateMutability": "nonpayable",
      "type": "function"
    },
    {
      "constant": false,
      "inputs": [
        {
          "name": "num",
          "type": "uint256"
        }
      ],
      "name": "substractNumber",
      "outputs": [],
      "payable": false,
      "stateMutability": "nonpayable",
      "type": "function"
    },
    {
      "constant": false,
      "inputs": [
        {
          "name": "num",
          "type": "uint256"
        }
      ],
      "name": "multiplyWithNumber",
      "outputs": [],
      "payable": false,
      "stateMutability": "nonpayable",
      "type": "function"
    },
    {
      "constant": false,
      "inputs": [
        {
          "name": "num",
          "type": "uint256"
        }
      ],
      "name": "divideByNumber",
      "outputs": [],
      "payable": false,
      "stateMutability": "nonpayable",
      "type": "function"
    }
  ],
  "bytecode": "0x6060604052600a600055341561001457600080fd5b6101ad806100236000396000f30060606040526004361061006d576000357c0100000000000000000000000000000000000000000000000000000000900463ffffffff16806306ccd230146100725780630b7e4e7f14610095578063b4679b06146100b8578063de292789146100db578063f5cb911d14610104575b600080fd5b341561007d57600080fd5b6100936004808035906020019091905050610127565b005b34156100a057600080fd5b6100b66004808035906020019091905050610139565b005b34156100c357600080fd5b6100d9600480803590602001909190505061014b565b005b34156100e657600080fd5b6100ee61015d565b6040518082815260200191505060405180910390f35b341561010f57600080fd5b6101256004808035906020019091905050610166565b005b80600080828254019250508190555050565b80600080828254039250508190555050565b80600080828254029250508190555050565b60008054905090565b8060008082825481151561017657fe5b0492505081905550505600a165627a7a723058208141fb757e813f6e2bff380d952d5bf0c4e192ab841de79ed955e67cf629b1980029",
  "source": "/**\r\n * Skeleton code for Calculator\r\n * This contract is for demonstrating the use of Truffle framework.\r\n **/\r\n\r\npragma solidity ^0.4.17;\r\n\r\ncontract Calculator {\r\n\r\n  // Result of the operation are always stored in this variable\r\n  uint result=10;\r\n\r\n  function Calculator() public {\r\n    // constructor\r\n    \r\n  }\r\n\r\n  // returns the result\r\n  function getResult() public view returns (uint) {\r\n    return result;\r\n  }\r\n\r\n  // result = result + num\r\n  function addToNumber(uint num) public {\r\n    result += num;\r\n  }\r\n\r\n  // result = result - num\r\n  function substractNumber(uint num) public {\r\n    result -= num;\r\n  }\r\n\r\n  // result = result * num\r\n  function multiplyWithNumber(uint num) public {\r\n    result *= num;\r\n  }\r\n\r\n  // result = result / num\r\n  function divideByNumber(uint num) public {\r\n    result /= num;\r\n  }\r\n\r\n}\r\n",
  "sourcePath": "C:\\Users\\Rajeev\\Documents\\Course\\Blockchain Course\\workspace\\Blockchain-Course-Basic-Solidity\\contracts\\Calculator.sol",
  "compiler": {
    "name": "solc",
    "version": "0.4.19+commit.c4cbbb05.Emscripten.clang"
  },
  "schemaVersion": "2.0.0",
  "updatedAt": "2018-04-20T12:26:58.065Z"
}