{
  "contractName": "CheckNulls",
  "abi": [
    {
      "constant": true,
      "inputs": [],
      "name": "checkZeroValues",
      "outputs": [],
      "payable": false,
      "stateMutability": "view",
      "type": "function"
    }
  ],
  "bytecode": "0x6060604052341561000f57600080fd5b6102008061001e6000396000f300606060405260043610610041576000357c0100000000000000000000000000000000000000000000000000000000900463ffffffff1680630cc4e13814610046575b600080fd5b341561005157600080fd5b61005961005b565b005b60008073ffffffffffffffffffffffffffffffffffffffff166000809054906101000a900473ffffffffffffffffffffffffffffffffffffffff1673ffffffffffffffffffffffffffffffffffffffff1614905060008060009054906101000a900473ffffffffffffffffffffffffffffffffffffffff1673ffffffffffffffffffffffffffffffffffffffff161490506000600180546001816001161561010002031660029004905014905060006001026002546000191614806101295750600060010260025460001916145b90506000600a8054905014905060006003600060078110151561014857fe5b01541490506000600b60000160009054906101000a900473ffffffffffffffffffffffffffffffffffffffff1673ffffffffffffffffffffffffffffffffffffffff161490506000600b6001018054600181600116156101000203166002900490501490506000600102600d6000601360ff1681526020019081526020016000205460001916149050505600a165627a7a72305820d76363211027bffdc7a295f12e8ef4b0f25f8275c787716835449aa98ccaff190029",
  "source": "pragma solidity ^0.4.4;\r\n\r\n/**\r\n * Solidity does not have the concept of null\r\n * So how do you check if the variable is initialized or not?\r\n **/\r\ncontract CheckNulls {\r\n\r\n  // Un initialized storage variable declarations\r\n  // Initialized to 0s\r\n    struct SomeStruct {\r\n        address owner;\r\n        string  name;\r\n    }\r\n  \r\n    address     owner;\r\n    string      name;\r\n    bytes32     keyword;\r\n    int[7]      staticArray;\r\n    uint8[]     dynamicArray;\r\n\r\n    SomeStruct  someStruct;\r\n    mapping(uint8 => bytes32) map;\r\n  \r\n\r\n  // This function is simply to demonstrate how\r\n  // 0 values are checked for various data types\r\n  \r\n    function checkZeroValues() public view {\r\n        bool  flag;\r\n        // All of the following will set flag to true\r\n        flag = (owner == address(0x0));\r\n        flag = (owner == 0x0);\r\n        // For string check its length\r\n        flag = (bytes(name).length == 0);\r\n        // For bytes##\r\n        flag = (keyword == 0 || keyword == 0x0);\r\n        // For dynamic arrays\r\n        flag = (dynamicArray.length == 0);\r\n        // For static array check depends on the element type\r\n        flag = (staticArray[0] == 0);\r\n        // Struct - check for some attribute of struct for 0 value\r\n        flag = (someStruct.owner == 0x0);\r\n        flag = (bytes(someStruct.name).length == 0);\r\n        // mapping - all keys have 0 values i.e., all keys exist\r\n        flag = (map[19] == 0x0);\r\n    }\r\n}\r\n",
  "sourcePath": "C:\\Users\\Rajeev\\Documents\\Course\\Blockchain Course\\workspace\\Blockchain-Course-Basic-Solidity\\contracts\\CheckNulls.sol",
  "compiler": {
    "name": "solc",
    "version": "0.4.19+commit.c4cbbb05.Emscripten.clang"
  },
  "schemaVersion": "2.0.0",
  "updatedAt": "2018-04-18T21:19:44.077Z"
}