{
  "contractName": "ConstantsPayable",
  "abi": [
    {
      "constant": false,
      "inputs": [],
      "name": "getBalance",
      "outputs": [
        {
          "name": "",
          "type": "uint256"
        }
      ],
      "payable": false,
      "type": "function",
      "stateMutability": "nonpayable"
    },
    {
      "constant": true,
      "inputs": [],
      "name": "lastReceived",
      "outputs": [
        {
          "name": "",
          "type": "uint256"
        }
      ],
      "payable": false,
      "type": "function",
      "stateMutability": "view"
    },
    {
      "constant": true,
      "inputs": [],
      "name": "lastCaller",
      "outputs": [
        {
          "name": "",
          "type": "string"
        }
      ],
      "payable": false,
      "type": "function",
      "stateMutability": "view"
    },
    {
      "constant": true,
      "inputs": [],
      "name": "lastSender",
      "outputs": [
        {
          "name": "",
          "type": "address"
        }
      ],
      "payable": false,
      "type": "function",
      "stateMutability": "view"
    },
    {
      "constant": true,
      "inputs": [
        {
          "name": "name",
          "type": "string"
        }
      ],
      "name": "setLastCaller",
      "outputs": [],
      "payable": false,
      "type": "function",
      "stateMutability": "view"
    },
    {
      "constant": false,
      "inputs": [
        {
          "name": "name",
          "type": "string"
        }
      ],
      "name": "receiveEthers",
      "outputs": [],
      "payable": true,
      "type": "function",
      "stateMutability": "payable"
    },
    {
      "constant": true,
      "inputs": [],
      "name": "creationTime",
      "outputs": [
        {
          "name": "",
          "type": "uint256"
        }
      ],
      "payable": false,
      "type": "function",
      "stateMutability": "view"
    },
    {
      "inputs": [],
      "payable": false,
      "type": "constructor",
      "stateMutability": "nonpayable"
    },
    {
      "payable": true,
      "type": "fallback",
      "stateMutability": "payable"
    }
  ],
  "bytecode": "0x60606040526040805190810160405280600681526020017f4e4f5453455400000000000000000000000000000000000000000000000000008152506001908051906020019061004f92919061006c565b506000600355341561006057600080fd5b42600081905550610111565b828054600181600116156101000203166002900490600052602060002090601f016020900481019282601f106100ad57805160ff19168380011785556100db565b828001600101855582156100db579182015b828111156100da5782518255916020019190600101906100bf565b5b5090506100e891906100ec565b5090565b61010e91905b8082111561010a5760008160009055506001016100f2565b5090565b90565b6104ce806101206000396000f300606060405260043610610083576000357c0100000000000000000000000000000000000000000000000000000000900463ffffffff16806312065fe0146100855780631b2961d6146100ae5780632113522a146100d7578063256fec88146101655780637895c036146101ba578063b08c8e4514610217578063d8270dce14610269575b005b341561009057600080fd5b610098610292565b6040518082815260200191505060405180910390f35b34156100b957600080fd5b6100c16102b1565b6040518082815260200191505060405180910390f35b34156100e257600080fd5b6100ea6102b7565b6040518080602001828103825283818151815260200191508051906020019080838360005b8381101561012a57808201518184015260208101905061010f565b50505050905090810190601f1680156101575780820380516001836020036101000a031916815260200191505b509250505060405180910390f35b341561017057600080fd5b610178610355565b604051808273ffffffffffffffffffffffffffffffffffffffff1673ffffffffffffffffffffffffffffffffffffffff16815260200191505060405180910390f35b34156101c557600080fd5b610215600480803590602001908201803590602001908080601f0160208091040260200160405190810160405280939291908181526020018383808284378201915050505050509190505061037b565b005b610267600480803590602001908201803590602001908080601f01602080910402602001604051908101604052809392919081815260200183838082843782019150505050505091905050610395565b005b341561027457600080fd5b61027c6103f7565b6040518082815260200191505060405180910390f35b60003073ffffffffffffffffffffffffffffffffffffffff1631905090565b60035481565b60018054600181600116156101000203166002900480601f01602080910402602001604051908101604052809291908181526020018280546001816001161561010002031660029004801561034d5780601f106103225761010080835404028352916020019161034d565b820191906000526020600020905b81548152906001019060200180831161033057829003601f168201915b505050505081565b600260009054906101000a900473ffffffffffffffffffffffffffffffffffffffff1681565b80600190805190602001906103919291906103fd565b5050565b33600260006101000a81548173ffffffffffffffffffffffffffffffffffffffff021916908373ffffffffffffffffffffffffffffffffffffffff1602179055503460038190555080600190805190602001906103f39291906103fd565b5050565b60005481565b828054600181600116156101000203166002900490600052602060002090601f016020900481019282601f1061043e57805160ff191683800117855561046c565b8280016001018555821561046c579182015b8281111561046b578251825591602001919060010190610450565b5b509050610479919061047d565b5090565b61049f91905b8082111561049b576000816000905550600101610483565b5090565b905600a165627a7a723058200fd2cc3d5fd793ad587bfe2ec559b07bbe52aaf9a9d9c784d9c1012df2cfe5830029",
  "source": "pragma solidity ^0.4.4;\r\n\r\ncontract ConstantsPayable {\r\n\r\n  // MUST initialize storage here\r\n  uint    public  creationTime ;\r\n  string  public  lastCaller = \"NOTSET\";\r\n\r\n  address public  lastSender;\r\n  uint    public  lastReceived=0;\r\n\r\n  // This function will NOT update the lastCaller \r\n  // variable's value as it is marked constant\r\n  function  setLastCaller(string name) constant {\r\n    lastCaller = name;\r\n  }\r\n\r\n  function   ConstantsPayable() {\r\n    // Storage constant initialization NOT allowed\r\n    // in constructor\r\n    creationTime = now;\r\n  }\r\n\r\n\r\n  // This function can receive ethers\r\n  function receiveEthers(string name)   payable   {\r\n    lastSender = msg.sender;\r\n    lastReceived = msg.value;\r\n    lastCaller = name;\r\n  }\r\n\r\n  function  getBalance() returns (uint){\r\n    return this.balance;\r\n  }\r\n\r\n  // Fallback function\r\n  // This function gets invoked when contract receives ethers\r\n  // without the function data. \r\n  function() payable  {\r\n    // Max gas that can be spent in this function is 2300\r\n    // msg.value has the number wei received\r\n    // msg.sender has the address of the sender\r\n\r\n    // As a BEST practice just log an Event here\r\n\r\n    // If you do not want to receive ethers in the contract\r\n    // then throw exception here\r\n  }\r\n}\r\n",
  "sourcePath": "C:\\Users\\Rajeev\\Documents\\Course\\Blockchain Course\\workspace\\Blockchain-Course-Basic-Solidity\\contracts\\ConstantsPayable.sol",
  "compiler": {
    "name": "solc",
    "version": "0.4.18+commit.9cf6e910.Emscripten.clang"
  },
  "schemaVersion": "2.0.0",
  "updatedAt": "2018-03-02T19:20:36.256Z"
}