{
  "contractName": "ConvertLib",
  "abi": [
    {
      "constant": false,
      "inputs": [
        {
          "name": "amount",
          "type": "uint256"
        },
        {
          "name": "conversionRate",
          "type": "uint256"
        }
      ],
      "name": "convert",
      "outputs": [
        {
          "name": "convertedAmount",
          "type": "uint256"
        }
      ],
      "payable": false,
      "type": "function",
      "stateMutability": "nonpayable"
    }
  ],
  "bytecode": "0x6060604052341561000f57600080fd5b60b38061001d6000396000f300606060405260043610603f576000357c0100000000000000000000000000000000000000000000000000000000900463ffffffff16806396e4ee3d146044575b600080fd5b606160048080359060200190919080359060200190919050506077565b6040518082815260200191505060405180910390f35b60006001828402019050929150505600a165627a7a7230582082e61e189bdc0cec4ea43c9d2fa8f9743d8a94d1b06ab15cc7368fd76a4e9ef90029",
  "source": "pragma solidity ^0.4.4;\r\n\r\nlibrary ConvertLib{\r\n\tfunction convert(uint amount,uint conversionRate) returns (uint convertedAmount)\r\n\t{\r\n\t\treturn amount * conversionRate+1;\r\n\t\t\r\n\t}\r\n}\r\n",
  "sourcePath": "C:\\Users\\Rajeev\\Documents\\Course\\Blockchain Course\\workspace\\Blockchain-Course-Basic-Solidity\\contracts\\ConvertLib.sol",
  "compiler": {
    "name": "solc",
    "version": "0.4.18+commit.9cf6e910.Emscripten.clang"
  },
  "schemaVersion": "2.0.0",
  "updatedAt": "2018-04-20T12:26:58.063Z"
}