{
  "contractName": "DataLocation",
  "abi": [
    {
      "constant": false,
      "inputs": [
        {
          "name": "args",
          "type": "uint256[]"
        }
      ],
      "name": "defaultAction",
      "outputs": [
        {
          "name": "dat",
          "type": "uint256[]"
        }
      ],
      "payable": false,
      "type": "function",
      "stateMutability": "nonpayable"
    },
    {
      "constant": false,
      "inputs": [],
      "name": "testFunction",
      "outputs": [],
      "payable": false,
      "type": "function",
      "stateMutability": "nonpayable"
    },
    {
      "inputs": [],
      "payable": false,
      "type": "constructor",
      "stateMutability": "nonpayable"
    }
  ],
  "bytecode": "0x6060604052341561000f57600080fd5b6101ee8061001e6000396000f30060606040526004361061004c576000357c0100000000000000000000000000000000000000000000000000000000900463ffffffff168063a2c716d314610051578063e16b4a9b14610100575b600080fd5b341561005c57600080fd5b6100a9600480803590602001908201803590602001908080602002602001604051908101604052809392919081815260200183836020028082843782019150505050505091905050610115565b6040518080602001828103825283818151815260200191508051906020019060200280838360005b838110156100ec5780820151818401526020810190506100d1565b505050509050019250505060405180910390f35b341561010b57600080fd5b610113610122565b005b61011d6101ae565b919050565b61012a6101ae565b6000806001915061013a83610115565b5060009050610148816101a7565b506101a18180548060200260200160405190810160405280929190818152602001828054801561019757602002820191906000526020600020905b815481526020019060010190808311610183575b5050505050610115565b50505050565b6000919050565b6020604051908101604052806000815250905600a165627a7a72305820b423894909856c276d684ac01d11eeba78d39d861c57c65b63890c2edeb4fae10029",
  "source": "pragma solidity ^0.4.4;\r\n\r\n/**\r\n * THIS CODE WILL THROW Compilation Errors\r\n * Code for demonstrating the use of keyword memory and storage\r\n * \r\n * PLEASE IGNORE THE Warning \"Unused local variable\" As this is demo code ... In real code you would address the warnings\r\n * Aug 8, 2017\r\n **/\r\n\r\n\r\ncontract DataLocation {\r\n\r\n  // Always in storage\r\n  uint[]  allPoints;\r\n\r\n  string  name;\r\n\r\n  // These would give compilation error as here you can declare only storage vars\r\n  //uint memory amount;\r\n  //uint[] memory some;\r\n\r\n  function  defaultAction(uint[] args) returns (uint[] dat) {\r\n    //...code..\r\n    \r\n  }\r\n  function  forcedAction(uint[] storage args) internal returns(uint[] storage dat) {\r\n    //...code...\r\n  }\r\n\r\n  function testFunction(){\r\n    // This will give error\r\n    // uint[]  localArray;\r\n\r\n    uint[]  memory   memoryArray;\r\n    // By default value types are created in memory\r\n    // But you may declare them as reference to storage\r\n    // Changes to loalName will be reflected in the storage va name\r\n    string storage localName = name;\r\n\r\n    // This will give error - requires array in storage\r\n    // forcedAction(memoryArray);\r\n\r\n    // This is fine\r\n    defaultAction(memoryArray);\r\n\r\n    // Creates a refernce\r\n    uint[] storage  pointer = allPoints;\r\n    // This is fine caz pointer is a reference to storage array\r\n    forcedAction(pointer);\r\n    // This is fine too\r\n    defaultAction(pointer);\r\n \r\n  }\r\n\r\n  function DataLocation() {\r\n    // constructor\r\n  }\r\n\r\n}\r\n",
  "sourcePath": "C:\\Users\\Rajeev\\Documents\\Course\\Blockchain Course\\workspace\\Blockchain-Course-Basic-Solidity\\contracts\\DataLocation.sol",
  "compiler": {
    "name": "solc",
    "version": "0.4.18+commit.9cf6e910.Emscripten.clang"
  },
  "schemaVersion": "1.0.1",
  "updatedAt": "2017-11-06T22:12:39.396Z"
}