{
  "contractName": "FuncTypesCaller",
  "abi": [
    {
      "constant": false,
      "inputs": [
        {
          "name": "funcTypesAddr",
          "type": "address"
        },
        {
          "name": "str",
          "type": "string"
        }
      ],
      "name": "callExternal",
      "outputs": [
        {
          "name": "",
          "type": "uint256"
        }
      ],
      "payable": false,
      "type": "function",
      "stateMutability": "nonpayable"
    },
    {
      "constant": false,
      "inputs": [
        {
          "name": "funcTypesAddr",
          "type": "address"
        },
        {
          "name": "str",
          "type": "string"
        }
      ],
      "name": "callAsTransaction",
      "outputs": [
        {
          "name": "",
          "type": "uint256"
        }
      ],
      "payable": false,
      "type": "function",
      "stateMutability": "nonpayable"
    }
  ],
  "bytecode": "0x6060604052341561000f57600080fd5b6102db8061001e6000396000f30060606040526004361061004c576000357c0100000000000000000000000000000000000000000000000000000000900463ffffffff16806310725fe01461005157806348d5b907146100b2575b600080fd5b341561005c57600080fd5b61009c600480803573ffffffffffffffffffffffffffffffffffffffff169060200190919080359060200190820180359060200191909192905050610113565b6040518082815260200191505060405180910390f35b34156100bd57600080fd5b6100fd600480803573ffffffffffffffffffffffffffffffffffffffff1690602001909190803590602001908201803590602001919091929050506101cf565b6040518082815260200191505060405180910390f35b6000808490508073ffffffffffffffffffffffffffffffffffffffff16630d35b47385856000604051602001526040518363ffffffff167c01000000000000000000000000000000000000000000000000000000000281526004018080602001828103825284848281815260200192508082843782019150509350505050602060405180830381600087803b15156101aa57600080fd5b6102c65a03f115156101bb57600080fd5b505050604051805190509150509392505050565b6000808473ffffffffffffffffffffffffffffffffffffffff1660405180807f696e64697265637443616c6c28737472696e6729000000000000000000000000815250601401905060405180910390207c0100000000000000000000000000000000000000000000000000000000900485856040518363ffffffff167c01000000000000000000000000000000000000000000000000000000000281526004018083838082843782019150509250505060006040518083038160008761646e5a03f19250505090508015156102a357600080fd5b600091505093925050505600a165627a7a72305820a0feca844c1960dcbf03c723db00f514f2d3c2d515997e33cf10f71dd6585bf40029",
  "source": "pragma solidity ^0.4.4;\r\n\r\n// This is needed for getting the function signature\r\n// You can avoid this inclusion by using the address.call\r\n// by using funtion callAsTransaction\r\nimport \"./FuncTypes.sol\";\r\n\r\n/**\r\n * Demonstrates how a contract calls another contract\r\n **/\r\ncontract FuncTypesCaller {\r\n  \r\n  // Function takes the address of FuncTypes & String\r\n  function  callExternal(address funcTypesAddr, string str) external returns (uint){\r\n      FuncTypes funcTypes = FuncTypes(funcTypesAddr);\r\n      return funcTypes.indirectCall(str);\r\n  }\r\n\r\n  function  callAsTransaction(address funcTypesAddr, string str) external returns (uint){\r\n      bool flag = funcTypesAddr.call(bytes4(sha3(\"indirectCall(string)\")), str);\r\n      if(!flag) /**throw;*Deprecated*/ revert();\r\n\r\n      return 0;\r\n  }  \r\n}\r\n\r\n",
  "sourcePath": "C:\\Users\\Rajeev\\Documents\\Course\\Blockchain Course\\workspace\\Blockchain-Course-Basic-Solidity\\contracts\\FuncTypesCaller.sol",
  "compiler": {
    "name": "solc",
    "version": "0.4.18+commit.9cf6e910.Emscripten.clang"
  },
  "schemaVersion": "2.0.0",
  "updatedAt": "2018-04-20T12:26:58.067Z"
}