{
  "contractName": "FuncTypes",
  "abi": [
    {
      "constant": false,
      "inputs": [
        {
          "name": "data",
          "type": "string"
        }
      ],
      "name": "indirectCall",
      "outputs": [
        {
          "name": "len",
          "type": "uint256"
        }
      ],
      "payable": false,
      "type": "function",
      "stateMutability": "nonpayable"
    },
    {
      "inputs": [],
      "payable": false,
      "type": "constructor",
      "stateMutability": "nonpayable"
    }
  ],
  "bytecode": "0x6060604052341561000f57600080fd5b61004a640100000000026100e117600160006101000a81548167ffffffffffffffff021916908367ffffffffffffffff160217905550610055565b600081519050919050565b610118806100646000396000f300606060405260043610603f576000357c0100000000000000000000000000000000000000000000000000000000900463ffffffff1680630d35b473146044575b600080fd5b3415604e57600080fd5b606d600480803590602001908201803590602001919091929050506083565b6040518082815260200191505060405180910390f35b600060d983838080601f016020809104026020016040519081016040528093929190818152602001838380828437820191505050505050600160009054906101000a900467ffffffffffffffff1663ffffffff16565b905092915050565b6000815190509190505600a165627a7a72305820b74d114b8b32fe468120bf49a801cd1c40e88ebeb5ae451a7fe96add0c29825e0029",
  "source": "pragma solidity ^0.4.4;\r\n\r\n/**\r\n * Demonstrates use of the function type variables\r\n **/\r\ncontract FuncTypes {\r\n\r\n    bytes  private secret;\r\n\r\n    // Reference to an internal function\r\n    function(string memory) internal returns(uint) lengthFunctionVar;\r\n\r\n    // Constructor\r\n    function  FuncTypes(){\r\n      lengthFunctionVar = actualLengthFunction;\r\n    }\r\n\r\n    // This method should NOT be available for calls from OUTSIDE the contract context\r\n    function  actualLengthFunction(string memory str)  private returns (uint len){\r\n      len = bytes(str).length;\r\n    }\r\n\r\n    // For demo purposes\r\n    // Calls using the state variable reference rather than actual function\r\n    function  indirectCall(string  data) external returns(uint len){\r\n      len = lengthFunctionVar(data);\r\n    }\r\n}",
  "sourcePath": "C:\\Users\\Rajeev\\Documents\\Course\\Blockchain Course\\workspace\\Blockchain-Course-Basic-Solidity\\contracts\\FuncTypes.sol",
  "compiler": {
    "name": "solc",
    "version": "0.4.18+commit.9cf6e910.Emscripten.clang"
  },
  "schemaVersion": "2.0.0",
  "updatedAt": "2018-04-20T12:26:58.068Z"
}