{
  "contractName": "Globals",
  "abi": [
    {
      "constant": false,
      "inputs": [],
      "name": "etherUnitsTest",
      "outputs": [
        {
          "name": "",
          "type": "bool"
        }
      ],
      "payable": false,
      "type": "function",
      "stateMutability": "nonpayable"
    },
    {
      "constant": true,
      "inputs": [],
      "name": "lastCaller",
      "outputs": [
        {
          "name": "",
          "type": "string"
        }
      ],
      "payable": false,
      "type": "function",
      "stateMutability": "view"
    },
    {
      "constant": false,
      "inputs": [
        {
          "name": "str",
          "type": "string"
        }
      ],
      "name": "callCrypto",
      "outputs": [
        {
          "name": "dat",
          "type": "bytes32[5]"
        }
      ],
      "payable": false,
      "type": "function",
      "stateMutability": "nonpayable"
    },
    {
      "constant": false,
      "inputs": [],
      "name": "timeUnitsTest",
      "outputs": [
        {
          "name": "",
          "type": "uint256"
        }
      ],
      "payable": false,
      "type": "function",
      "stateMutability": "nonpayable"
    },
    {
      "constant": false,
      "inputs": [],
      "name": "getMsgInformation",
      "outputs": [
        {
          "name": "data",
          "type": "bytes"
        },
        {
          "name": "sig",
          "type": "bytes4"
        },
        {
          "name": "sender",
          "type": "address"
        }
      ],
      "payable": false,
      "type": "function",
      "stateMutability": "nonpayable"
    },
    {
      "constant": false,
      "inputs": [
        {
          "name": "distance",
          "type": "uint256"
        },
        {
          "name": "units",
          "type": "uint256"
        }
      ],
      "name": "calculateFutureTime",
      "outputs": [
        {
          "name": "",
          "type": "uint256"
        }
      ],
      "payable": false,
      "type": "function",
      "stateMutability": "nonpayable"
    },
    {
      "constant": false,
      "inputs": [
        {
          "name": "name",
          "type": "string"
        }
      ],
      "name": "throwBehavior",
      "outputs": [
        {
          "name": "",
          "type": "bool"
        }
      ],
      "payable": false,
      "type": "function",
      "stateMutability": "nonpayable"
    },
    {
      "constant": false,
      "inputs": [],
      "name": "getBlockInformation",
      "outputs": [
        {
          "name": "number",
          "type": "uint256"
        },
        {
          "name": "hash",
          "type": "bytes32"
        },
        {
          "name": "coinbase",
          "type": "address"
        },
        {
          "name": "difficulty",
          "type": "uint256"
        }
      ],
      "payable": false,
      "type": "function",
      "stateMutability": "nonpayable"
    }
  ],
  "bytecode": "0x60606040526040805190810160405280600781526020017f6e6f742d736574000000000000000000000000000000000000000000000000008152506000908051906020019061004f929190610060565b50341561005b57600080fd5b610105565b828054600181600116156101000203166002900490600052602060002090601f016020900481019282601f106100a157805160ff19168380011785556100cf565b828001600101855582156100cf579182015b828111156100ce5782518255916020019190600101906100b3565b5b5090506100dc91906100e0565b5090565b61010291905b808211156100fe5760008160009055506001016100e6565b5090565b90565b610a85806101146000396000f30060606040526004361061008e576000357c0100000000000000000000000000000000000000000000000000000000900463ffffffff1680630c317438146100935780632113522a146100c0578063584faff51461014e5780637ebe8087146101e75780638e663b0614610210578063be99478e14610316578063ccfdbadf14610356578063de7066f1146103cb575b600080fd5b341561009e57600080fd5b6100a661043d565b604051808215151515815260200191505060405180910390f35b34156100cb57600080fd5b6100d3610479565b6040518080602001828103825283818151815260200191508051906020019080838360005b838110156101135780820151818401526020810190506100f8565b50505050905090810190601f1680156101405780820380516001836020036101000a031916815260200191505b509250505060405180910390f35b341561015957600080fd5b6101a9600480803590602001908201803590602001908080601f01602080910402602001604051908101604052809392919081815260200183838082843782019150505050505091905050610517565b6040518082600560200280838360005b838110156101d45780820151818401526020810190506101b9565b5050505090500191505060405180910390f35b34156101f257600080fd5b6101fa61084d565b6040518082815260200191505060405180910390f35b341561021b57600080fd5b61022361085a565b6040518080602001847bffffffffffffffffffffffffffffffffffffffffffffffffffffffff19167bffffffffffffffffffffffffffffffffffffffffffffffffffffffff191681526020018373ffffffffffffffffffffffffffffffffffffffff1673ffffffffffffffffffffffffffffffffffffffff168152602001828103825285818151815260200191508051906020019080838360005b838110156102d95780820151818401526020810190506102be565b50505050905090810190601f1680156103065780820380516001836020036101000a031916815260200191505b5094505050505060405180910390f35b341561032157600080fd5b61034060048080359060200190919080359060200190919050506108ca565b6040518082815260200191505060405180910390f35b341561036157600080fd5b6103b1600480803590602001908201803590602001908080601f0160208091040260200160405190810160405280939291908181526020018383808284378201915050505050509190505061093b565b604051808215151515815260200191505060405180910390f35b34156103d657600080fd5b6103de610959565b6040518085815260200184600019166000191681526020018373ffffffffffffffffffffffffffffffffffffffff1673ffffffffffffffffffffffffffffffffffffffff16815260200182815260200194505050505060405180910390f35b6000806000670de0b6b3a764000080149150600180149150678ac7230489e8000090506801158e460913d0000060028202149150819250505090565b60008054600181600116156101000203166002900480601f01602080910402602001604051908101604052809291908181526020018280546001816001161561010002031660029004801561050f5780601f106104e45761010080835404028352916020019161050f565b820191906000526020600020905b8154815290600101906020018083116104f257829003601f168201915b505050505081565b61051f610975565b816040518082805190602001908083835b6020831015156105555780518252602082019150602081019050602083039250610530565b6001836020036101000a038019825116818451168082178552505050505050905001915050604051809103902081600060058110151561059157fe5b60200201906000191690816000191681525050816040518082805190602001908083835b6020831015156105da57805182526020820191506020810190506020830392506105b5565b6001836020036101000a038019825116818451168082178552505050505050905001915050604051809103902081600160058110151561061657fe5b602002019060001916908160001916815250506002826000604051602001526040518082805190602001908083835b60208310151561066a5780518252602082019150602081019050602083039250610645565b6001836020036101000a03801982511681845116808217855250505050505090500191505060206040518083038160008661646e5a03f115156106ac57600080fd5b5050604051805190508160026005811015156106c457fe5b6020020190600019169081600019168152505060405180807f4142000000000000000000000000000000000000000000000000000000000000815250600201807f4300000000000000000000000000000000000000000000000000000000000000815250600101807f44450000000000000000000000000000000000000000000000000000000000008152506002019050604051809103902081600360058110151561076c57fe5b602002019060001916908160001916815250506003826000604051602001526040518082805190602001908083835b6020831015156107c0578051825260208201915060208101905060208303925061079b565b6001836020036101000a03801982511681845116808217855250505050505090500191505060206040518083038160008661646e5a03f1151561080257600080fd5b5050604051516c01000000000000000000000000026bffffffffffffffffffffffff191681600460058110151561083557fe5b60200201906000191690816000191681525050919050565b6000804290508091505090565b6108626109a0565b6000806000368080601f01602080910402602001604051908101604052809392919081815260200183838082843782019150505050505092506000357fffffffff00000000000000000000000000000000000000000000000000000000169150339050909192565b60008060028111156108d857fe5b8214156108ec57603c830242019050610935565b600160028111156108f957fe5b82141561090e57610e10830242019050610935565b60028081111561091a57fe5b8214156109305762015180830242019050610935565b600190505b92915050565b600081600090805190602001906109539291906109b4565b50600080fd5b6000806000804393506001840340925041915044905090919293565b60a0604051908101604052806005905b60008019168152602001906001900390816109855790505090565b602060405190810160405280600081525090565b828054600181600116156101000203166002900490600052602060002090601f016020900481019282601f106109f557805160ff1916838001178555610a23565b82800160010185558215610a23579182015b82811115610a22578251825591602001919060010190610a07565b5b509050610a309190610a34565b5090565b610a5691905b80821115610a52576000816000905550600101610a3a565b5090565b905600a165627a7a723058207f99ff257f1a6aa6998145c0643b49c0cc30673484ff30a9e3d9e5232763b2eb0029",
  "source": "pragma solidity ^0.4.4;\r\n\r\n/**\r\n * Demonstrates the use of the global variables \r\n * and functions\r\n **/\r\ncontract Globals {\r\n\r\n  enum  TimeUnit  {Minute, Hour, Day}\r\n\r\n  string  public lastCaller = \"not-set\";\r\n\r\n  // Demonstrates the use of the ether subdenominations\r\n  function  etherUnitsTest() returns(bool) {\r\n   // True\r\n   bool flag = (1 ether == 1000 finney);\r\n   // True\r\n   flag = (1 wei == 0.000000000000000001 ether);\r\n\r\n   // True\r\n   uint amount = 10 ether;\r\n   flag = (amount*2 == 20000 finney);\r\n\r\n   return flag;\r\n  }\r\n\r\n  // Demonstrates the use of the time units\r\n  function  timeUnitsTest() public returns (uint){\r\n    uint  tim = now;\r\n    return tim;\r\n  }\r\n\r\n  /**\r\n   * Calculates the time in future\r\n   * Takes a number & a unit for the number e.g., 10 minute, 10 Hour\r\n   **/\r\n  function  calculateFutureTime(uint distance, uint units)  public returns (uint) {\r\n    if (units == uint(TimeUnit.Minute)){\r\n      return (now + distance*1 minutes);\r\n    } else if (units == uint(TimeUnit.Hour)) {\r\n      return (now + distance*1 hours);\r\n    } else if (units == uint(TimeUnit.Day)) {\r\n      return (now + distance*1 days);\r\n    }\r\n    return 1;\r\n  }\r\n\r\n\r\n  // Demonstrates the use of block object\r\n  function  getBlockInformation() returns (uint number, bytes32 hash, address coinbase, uint difficulty) {\r\n    number = block.number; // Previous block\r\n    hash = block.blockhash(number - 1); // -1 because excluding current\r\n    // Current block\r\n    coinbase = block.coinbase;  \r\n    difficulty = block.difficulty;\r\n  }\r\n\r\n  // Demonstrates the use of the msg object\r\n  function getMsgInformation()  returns (bytes data, bytes4  sig, address sender){\r\n    data = msg.data;\r\n    sig = msg.sig;\r\n    sender = msg.sender;\r\n  }\r\n\r\n  function  throwBehavior(string name) returns (bool){\r\n    lastCaller = name;\r\n    // In test RPC throw cannot be tested\r\n    // Uncommenting this line would lead to exception related to JUMP \r\n    /**throw ;*Deprecated*/\r\n    revert();\r\n    \r\n    return true;\r\n  }\r\n\r\n  function  callCrypto(string str) returns (bytes32[5] dat){\r\n    dat[0] = keccak256(str);\r\n    dat[1] = sha3(str);\r\n    dat[2] = sha256(str);\r\n    // Tightly Packed example:  same as sha3(\"ABCDE\")\r\n    dat[3] = sha3(\"AB\",\"C\",\"DE\");\r\n    dat[4] = ripemd160(str);\r\n  }\r\n\r\n}\r\n\r\n\r\n",
  "sourcePath": "C:\\Users\\Rajeev\\Documents\\Course\\Blockchain Course\\workspace\\Blockchain-Course-Basic-Solidity\\contracts\\Globals.sol",
  "compiler": {
    "name": "solc",
    "version": "0.4.18+commit.9cf6e910.Emscripten.clang"
  },
  "schemaVersion": "2.0.0",
  "updatedAt": "2018-02-28T16:13:19.855Z"
}