{
  "contractName": "Globals",
  "abi": [
    {
      "constant": true,
      "inputs": [],
      "name": "lastCaller",
      "outputs": [
        {
          "name": "",
          "type": "string"
        }
      ],
      "payable": false,
      "stateMutability": "view",
      "type": "function"
    },
    {
      "constant": false,
      "inputs": [
        {
          "name": "num",
          "type": "int256"
        }
      ],
      "name": "someComplexProcess",
      "outputs": [],
      "payable": false,
      "stateMutability": "nonpayable",
      "type": "function"
    },
    {
      "constant": true,
      "inputs": [],
      "name": "etherUnitsTest",
      "outputs": [
        {
          "name": "",
          "type": "bool"
        }
      ],
      "payable": false,
      "stateMutability": "pure",
      "type": "function"
    },
    {
      "constant": true,
      "inputs": [],
      "name": "timeUnitsTest",
      "outputs": [
        {
          "name": "",
          "type": "uint256"
        }
      ],
      "payable": false,
      "stateMutability": "view",
      "type": "function"
    },
    {
      "constant": true,
      "inputs": [
        {
          "name": "distance",
          "type": "uint256"
        },
        {
          "name": "units",
          "type": "uint256"
        }
      ],
      "name": "calculateFutureTime",
      "outputs": [
        {
          "name": "",
          "type": "uint256"
        }
      ],
      "payable": false,
      "stateMutability": "view",
      "type": "function"
    },
    {
      "constant": true,
      "inputs": [],
      "name": "getBlockInformation",
      "outputs": [
        {
          "name": "number",
          "type": "uint256"
        },
        {
          "name": "hash",
          "type": "bytes32"
        },
        {
          "name": "coinbase",
          "type": "address"
        },
        {
          "name": "difficulty",
          "type": "uint256"
        }
      ],
      "payable": false,
      "stateMutability": "view",
      "type": "function"
    },
    {
      "constant": true,
      "inputs": [],
      "name": "getMsgInformation",
      "outputs": [
        {
          "name": "data",
          "type": "bytes"
        },
        {
          "name": "sig",
          "type": "bytes4"
        },
        {
          "name": "sender",
          "type": "address"
        }
      ],
      "payable": false,
      "stateMutability": "view",
      "type": "function"
    },
    {
      "constant": false,
      "inputs": [
        {
          "name": "name",
          "type": "string"
        }
      ],
      "name": "revertBehavior",
      "outputs": [
        {
          "name": "",
          "type": "bool"
        }
      ],
      "payable": false,
      "stateMutability": "nonpayable",
      "type": "function"
    },
    {
      "constant": true,
      "inputs": [
        {
          "name": "str",
          "type": "string"
        }
      ],
      "name": "callCrypto",
      "outputs": [
        {
          "name": "dat",
          "type": "bytes32[5]"
        }
      ],
      "payable": false,
      "stateMutability": "pure",
      "type": "function"
    }
  ],
  "bytecode": "0x60606040526040805190810160405280600781526020017f6e6f742d736574000000000000000000000000000000000000000000000000008152506000908051906020019061004f929190610065565b506064600155341561006057600080fd5b61010a565b828054600181600116156101000203166002900490600052602060002090601f016020900481019282601f106100a657805160ff19168380011785556100d4565b828001600101855582156100d4579182015b828111156100d35782518255916020019190600101906100b8565b5b5090506100e191906100e5565b5090565b61010791905b808211156101035760008160009055506001016100eb565b5090565b90565b610a5d806101196000396000f300606060405260043610610099576000357c0100000000000000000000000000000000000000000000000000000000900463ffffffff1680630c3174381461009e5780632113522a146100cb578063584faff5146101595780637ebe8087146101f25780638e663b061461021b5780639490a4d814610321578063be99478e14610344578063d3660c1c14610384578063de7066f1146103f9575b600080fd5b34156100a957600080fd5b6100b161046b565b604051808215151515815260200191505060405180910390f35b34156100d657600080fd5b6100de6104a7565b6040518080602001828103825283818151815260200191508051906020019080838360005b8381101561011e578082015181840152602081019050610103565b50505050905090810190601f16801561014b5780820380516001836020036101000a031916815260200191505b509250505060405180910390f35b341561016457600080fd5b6101b4600480803590602001908201803590602001908080601f01602080910402602001604051908101604052809392919081815260200183838082843782019150505050505091905050610545565b6040518082600560200280838360005b838110156101df5780820151818401526020810190506101c4565b5050505090500191505060405180910390f35b34156101fd57600080fd5b6102056107f6565b6040518082815260200191505060405180910390f35b341561022657600080fd5b61022e610803565b6040518080602001847bffffffffffffffffffffffffffffffffffffffffffffffffffffffff19167bffffffffffffffffffffffffffffffffffffffffffffffffffffffff191681526020018373ffffffffffffffffffffffffffffffffffffffff1673ffffffffffffffffffffffffffffffffffffffff168152602001828103825285818151815260200191508051906020019080838360005b838110156102e45780820151818401526020810190506102c9565b50505050905090810190601f1680156103115780820380516001836020036101000a031916815260200191505b5094505050505060405180910390f35b341561032c57600080fd5b6103426004808035906020019091905050610873565b005b341561034f57600080fd5b61036e600480803590602001909190803590602001909190505061088f565b6040518082815260200191505060405180910390f35b341561038f57600080fd5b6103df600480803590602001908201803590602001908080601f01602080910402602001604051908101604052809392919081815260200183838082843782019150505050505091905050610900565b604051808215151515815260200191505060405180910390f35b341561040457600080fd5b61040c610931565b6040518085815260200184600019166000191681526020018373ffffffffffffffffffffffffffffffffffffffff1673ffffffffffffffffffffffffffffffffffffffff16815260200182815260200194505050505060405180910390f35b6000806000670de0b6b3a764000080149150600180149150678ac7230489e8000090506801158e460913d0000060028202149150819250505090565b60008054600181600116156101000203166002900480601f01602080910402602001604051908101604052809291908181526020018280546001816001161561010002031660029004801561053d5780601f106105125761010080835404028352916020019161053d565b820191906000526020600020905b81548152906001019060200180831161052057829003601f168201915b505050505081565b61054d61094d565b816040518082805190602001908083835b602083101515610583578051825260208201915060208101905060208303925061055e565b6001836020036101000a03801982511681845116808217855250505050505090500191505060405180910390208160006005811015156105bf57fe5b602002019060001916908160001916815250506002826000604051602001526040518082805190602001908083835b60208310151561061357805182526020820191506020810190506020830392506105ee565b6001836020036101000a03801982511681845116808217855250505050505090500191505060206040518083038160008661646e5a03f1151561065557600080fd5b50506040518051905081600260058110151561066d57fe5b6020020190600019169081600019168152505060405180807f4142000000000000000000000000000000000000000000000000000000000000815250600201807f4300000000000000000000000000000000000000000000000000000000000000815250600101807f44450000000000000000000000000000000000000000000000000000000000008152506002019050604051809103902081600360058110151561071557fe5b602002019060001916908160001916815250506003826000604051602001526040518082805190602001908083835b6020831015156107695780518252602082019150602081019050602083039250610744565b6001836020036101000a03801982511681845116808217855250505050505090500191505060206040518083038160008661646e5a03f115156107ab57600080fd5b5050604051516c01000000000000000000000000026bffffffffffffffffffffffff19168160046005811015156107de57fe5b60200201906000191690816000191681525050919050565b6000804290508091505090565b61080b610978565b6000806000368080601f01602080910402602001604051908101604052809392919081815260200183838082843782019150505050505092506000357fffffffff00000000000000000000000000000000000000000000000000000000169150339050909192565b8060015403600181905550600060015413151561088c57fe5b50565b600080600281111561089d57fe5b8214156108b157603c8302420190506108fa565b600160028111156108be57fe5b8214156108d357610e108302420190506108fa565b6002808111156108df57fe5b8214156108f557620151808302420190506108fa565b600190505b92915050565b6000816000908051906020019061091892919061098c565b5060008251141561092857600080fd5b60019050919050565b6000806000804393506001840340925041915044905090919293565b60a0604051908101604052806005905b600080191681526020019060019003908161095d5790505090565b602060405190810160405280600081525090565b828054600181600116156101000203166002900490600052602060002090601f016020900481019282601f106109cd57805160ff19168380011785556109fb565b828001600101855582156109fb579182015b828111156109fa5782518255916020019190600101906109df565b5b509050610a089190610a0c565b5090565b610a2e91905b80821115610a2a576000816000905550600101610a12565b5090565b905600a165627a7a723058204954b474941693b4d86733797e75bb43451500d34fdeaadfd59104d36ddc98070029",
  "source": "pragma solidity ^0.4.4;\r\n\r\n/**\r\n * Demonstrates the use of the global variables \r\n * and functions\r\n **/\r\ncontract Globals {\r\n\r\n    enum  TimeUnit  {Minute, Hour, Day}\r\n\r\n    string  public lastCaller = \"not-set\";\r\n  \r\n    // someVariable should always be > 0 otherwise its a BUG\r\n    int    someVariable = 100;\r\n\r\n    function  someComplexProcess(int num) public {\r\n        // ....\r\n        someVariable = someVariable - num;\r\n        // some variable gets manupulated in the code\r\n\r\n        // If value of someVariable goes below 0 then throw an exception\r\n        assert(someVariable > 0);\r\n    }\r\n\r\n\r\n    // Demonstrates the use of the ether subdenominations\r\n    function  etherUnitsTest() public pure returns(bool) {\r\n        // True\r\n        bool flag = (1 ether == 1000 finney);\r\n        // True\r\n        flag = (1 wei == 0.000000000000000001 ether);\r\n\r\n        // True\r\n        uint amount = 10 ether;\r\n        flag = (amount*2 == 20000 finney);\r\n\r\n        return flag;\r\n    }\r\n\r\n    // Demonstrates the use of the time units\r\n    function  timeUnitsTest() public view returns (uint) {\r\n        uint  tim = now;  \r\n        return tim;\r\n    }\r\n\r\n    /**\r\n    * Calculates the time in future\r\n    * Takes a number & a unit for the number e.g., 10 minute, 10 Hour\r\n    **/\r\n    function  calculateFutureTime(uint distance, uint units)  public view returns (uint) {\r\n        if (units == uint(TimeUnit.Minute)) {\r\n            return (now + distance*1 minutes);\r\n        } else if (units == uint(TimeUnit.Hour)) {\r\n            return (now + distance*1 hours);\r\n        } else if (units == uint(TimeUnit.Day)) {\r\n            return (now + distance*1 days);\r\n        }\r\n        return 1;\r\n    }\r\n\r\n\r\n    // Demonstrates the use of block object\r\n    function  getBlockInformation() public view returns (uint number, bytes32 hash, address coinbase, uint difficulty) {\r\n        number = block.number; // Previous block\r\n        hash = block.blockhash(number - 1); // -1 because excluding current\r\n        // Current block\r\n        coinbase = block.coinbase;  \r\n        difficulty = block.difficulty;\r\n    }\r\n\r\n    // Demonstrates the use of the msg object\r\n    function getMsgInformation() public view returns (bytes data, bytes4  sig, address sender) {\r\n        data = msg.data;\r\n        sig = msg.sig;\r\n        sender = msg.sender;\r\n    }\r\n\r\n    function  revertBehavior(string name) public returns (bool) {\r\n        lastCaller = name;\r\n        // In Ganache or TestRPC throw cannot be tested (there is a way but its kludgy)\r\n        // Uncommenting this line would lead to exception related to JUMP \r\n\r\n        // Check if length of the string is zero\r\n        if (bytes(name).length == 0) {\r\n            revert();\r\n        }\r\n\r\n        // The above lines of code may be replaced with this\r\n        //require(bytes(name).length > 0);\r\n        \r\n        return true;\r\n    }\r\n\r\n    function  callCrypto(string str) public pure returns (bytes32[5] dat) {\r\n        dat[0] = keccak256(str);\r\n        \r\n        //dat[1] = sha3(str);  // sha3 is deprecated\r\n        \r\n        dat[2] = sha256(str);\r\n        \r\n        // Tightly Packed example:  same as sha3(\"ABCDE\")\r\n        //dat[3] = sha3(\"AB\",\"C\",\"DE\"); // sha3 is deprecated\r\n        dat[3] = keccak256(\"AB\",\"C\",\"DE\"); \r\n        \r\n        dat[4] = ripemd160(str);\r\n    }\r\n\r\n}\r\n\r\n\r\n",
  "sourcePath": "C:\\Users\\Rajeev\\Documents\\Course\\Blockchain Course\\workspace\\Blockchain-Course-Basic-Solidity\\contracts\\Globals.sol",
  "compiler": {
    "name": "solc",
    "version": "0.4.19+commit.c4cbbb05.Emscripten.clang"
  },
  "schemaVersion": "2.0.0",
  "updatedAt": "2018-04-20T12:26:58.077Z"
}