{
  "contractName": "MappingEnumStruct",
  "abi": [
    {
      "constant": false,
      "inputs": [
        {
          "name": "arg",
          "type": "uint8"
        }
      ],
      "name": "getContinent",
      "outputs": [
        {
          "name": "",
          "type": "string"
        }
      ],
      "payable": false,
      "type": "function",
      "stateMutability": "nonpayable"
    },
    {
      "constant": false,
      "inputs": [
        {
          "name": "country",
          "type": "string"
        }
      ],
      "name": "getCapital",
      "outputs": [
        {
          "name": "",
          "type": "string"
        }
      ],
      "payable": false,
      "type": "function",
      "stateMutability": "nonpayable"
    },
    {
      "constant": false,
      "inputs": [
        {
          "name": "nm",
          "type": "bytes32"
        },
        {
          "name": "cont",
          "type": "uint8"
        },
        {
          "name": "pop",
          "type": "uint16"
        }
      ],
      "name": "addEuropeanCountry",
      "outputs": [
        {
          "name": "",
          "type": "bool"
        }
      ],
      "payable": false,
      "type": "function",
      "stateMutability": "nonpayable"
    },
    {
      "constant": false,
      "inputs": [
        {
          "name": "country",
          "type": "string"
        }
      ],
      "name": "removeCapital",
      "outputs": [],
      "payable": false,
      "type": "function",
      "stateMutability": "nonpayable"
    },
    {
      "constant": false,
      "inputs": [
        {
          "name": "country",
          "type": "string"
        },
        {
          "name": "capital",
          "type": "string"
        }
      ],
      "name": "addCapital",
      "outputs": [],
      "payable": false,
      "type": "function",
      "stateMutability": "nonpayable"
    },
    {
      "constant": false,
      "inputs": [
        {
          "name": "name",
          "type": "bytes32"
        }
      ],
      "name": "getEuropeanCountry",
      "outputs": [
        {
          "name": "",
          "type": "bytes32"
        },
        {
          "name": "",
          "type": "uint8"
        },
        {
          "name": "",
          "type": "uint16"
        }
      ],
      "payable": false,
      "type": "function",
      "stateMutability": "nonpayable"
    }
  ],
  "bytecode": "0x6060604052341561000f57600080fd5b610c258061001e6000396000f300606060405260043610610078576000357c0100000000000000000000000000000000000000000000000000000000900463ffffffff168063155371bd1461007d578063418db3871461011c57806342024a4a146101f2578063a28bbb3d1461024a578063b4f9f621146102a7578063e8eb2ed914610347575b600080fd5b341561008857600080fd5b6100a1600480803560ff169060200190919050506103a6565b6040518080602001828103825283818151815260200191508051906020019080838360005b838110156100e15780820151818401526020810190506100c6565b50505050905090810190601f16801561010e5780820380516001836020036101000a031916815260200191505b509250505060405180910390f35b341561012757600080fd5b610177600480803590602001908201803590602001908080601f01602080910402602001604051908101604052809392919081815260200183838082843782019150505050505091905050610614565b6040518080602001828103825283818151815260200191508051906020019080838360005b838110156101b757808201518184015260208101905061019c565b50505050905090810190601f1680156101e45780820380516001836020036101000a031916815260200191505b509250505060405180910390f35b34156101fd57600080fd5b61023060048080356000191690602001909190803560ff1690602001909190803561ffff16906020019091905050610727565b604051808215151515815260200191505060405180910390f35b341561025557600080fd5b6102a5600480803590602001908201803590602001908080601f01602080910402602001604051908101604052809392919081815260200183838082843782019150505050505091905050610843565b005b34156102b257600080fd5b610345600480803590602001908201803590602001908080601f0160208091040260200160405190810160405280939291908181526020018383808284378201915050505050509190803590602001908201803590602001908080601f016020809104026020016040519081016040528093929190818152602001838380828437820191505050505050919050506108bd565b005b341561035257600080fd5b61036c600480803560001916906020019091905050610941565b6040518084600019166000191681526020018360ff1660ff1681526020018261ffff1661ffff168152602001935050505060405180910390f35b6103ae610a42565b600060068111156103bb57fe5b60ff168260ff161415610405576040805190810160405280600681526020017f4166726963610000000000000000000000000000000000000000000000000000815250905061060f565b6001600681111561041257fe5b60ff168260ff16141561045c576040805190810160405280600981526020017f416e746172746963610000000000000000000000000000000000000000000000815250905061060f565b6002600681111561046957fe5b60ff168260ff1614156104b3576040805190810160405280600481526020017f4173696100000000000000000000000000000000000000000000000000000000815250905061060f565b600360068111156104c057fe5b60ff168260ff16141561050a576040805190810160405280600981526020017f4175737472616c69610000000000000000000000000000000000000000000000815250905061060f565b6004600681111561051757fe5b60ff168260ff161415610561576040805190810160405280600681526020017f4575726f70650000000000000000000000000000000000000000000000000000815250905061060f565b6005600681111561056e57fe5b60ff168260ff1614156105b8576040805190810160405280600d81526020017f4e6f72746820416d657269636100000000000000000000000000000000000000815250905061060f565b6006808111156105c457fe5b60ff168260ff16141561060e576040805190810160405280600d81526020017f536f75746820416d657269636100000000000000000000000000000000000000815250905061060f565b5b919050565b61061c610a42565b6000826040518082805190602001908083835b602083101515610654578051825260208201915060208101905060208303925061062f565b6001836020036101000a03801982511681845116808217855250505050505090500191505090815260200160405180910390208054600181600116156101000203166002900480601f01602080910402602001604051908101604052809291908181526020018280546001816001161561010002031660029004801561071b5780601f106106f05761010080835404028352916020019161071b565b820191906000526020600020905b8154815290600101906020018083116106fe57829003601f168201915b50505050509050919050565b6000610731610a56565b6004600681111561073e57fe5b60ff168460ff16141515610755576000915061083b565b84816000019060001916908160001916815250508360ff16600681111561077857fe5b8160200190600681111561078857fe5b9081600681111561079557fe5b8152505082816040019061ffff16908161ffff1681525050600180548060010182816107c19190610a8a565b916000526020600020906002020160008390919091506000820151816000019060001916905560208201518160010160006101000a81548160ff0219169083600681111561080b57fe5b021790555060408201518160010160016101000a81548161ffff021916908361ffff160217905550505050600191505b509392505050565b6000816040518082805190602001908083835b60208310151561087b5780518252602082019150602081019050602083039250610856565b6001836020036101000a038019825116818451168082178552505050505050905001915050908152602001604051809103902060006108ba9190610abc565b50565b806000836040518082805190602001908083835b6020831015156108f657805182526020820191506020810190506020830392506108d1565b6001836020036101000a0380198251168184511680821785525050505050509050019150509081526020016040518091039020908051906020019061093c929190610b04565b505050565b600080600080600090505b6001805490508160ff161015610a395760018160ff1681548110151561096e57fe5b9060005260206000209060020201600001546000191685600019161415610a2c5760018160ff168154811015156109a157fe5b90600052602060002090600202016000015460018260ff168154811015156109c557fe5b906000526020600020906002020160010160009054906101000a900460ff1660068111156109ef57fe5b60018360ff16815481101515610a0157fe5b906000526020600020906002020160010160019054906101000a900461ffff16935093509350610a3a565b808060010191505061094c565b5b509193909250565b602060405190810160405280600081525090565b6060604051908101604052806000801916815260200160006006811115610a7957fe5b8152602001600061ffff1681525090565b815481835581811511610ab757600202816002028360005260206000209182019101610ab69190610b84565b5b505050565b50805460018160011615610100020316600290046000825580601f10610ae25750610b01565b601f016020900490600052602060002090810190610b009190610bd4565b5b50565b828054600181600116156101000203166002900490600052602060002090601f016020900481019282601f10610b4557805160ff1916838001178555610b73565b82800160010185558215610b73579182015b82811115610b72578251825591602001919060010190610b57565b5b509050610b809190610bd4565b5090565b610bd191905b80821115610bcd576000808201600090556001820160006101000a81549060ff02191690556001820160016101000a81549061ffff021916905550600201610b8a565b5090565b90565b610bf691905b80821115610bf2576000816000905550600101610bda565b5090565b905600a165627a7a72305820fbda81ac25dad43be29efec5da2956e7f3c983c69897072350a7d9c1af9592f80029",
  "source": "pragma solidity ^0.4.4;\r\n\r\ncontract MappingEnumStruct {\r\n \r\n // Storage\r\n mapping(string => string)  capitals;\r\n\r\n // Enumeration\r\n enum continents {Africa,Antartica,Asia,Australia,Europe,North_America, South_America}\r\n\r\n // Country\r\n struct country {\r\n   bytes32    name;\r\n   continents continent;\r\n   uint16      populationInMillion;\r\n }\r\n \r\n \r\n // Only countries in Europe added to this array\r\n country[]  europeanCountries;\r\n\r\n  // Get the country data\r\n function getEuropeanCountry(bytes32 name) returns (bytes32, uint8, uint16) {\r\n  // Let's do a linear search to find the ctry\r\n  for(uint8 i = 0; i < europeanCountries.length; i++){\r\n    if(name == europeanCountries[i].name){\r\n      return (europeanCountries[i].name, \r\n              uint8(europeanCountries[i].continent),\r\n              europeanCountries[i].populationInMillion);\r\n    }\r\n  }\r\n }\r\n\r\n // Structure cannot be passed \r\n function addEuropeanCountry(bytes32 nm, uint8 cont, uint16 pop) returns (bool) {\r\n  if(cont != uint8(continents.Europe)) return false;\r\n\r\n  country memory ctry;\r\n  // 3 ways to initialize this struct\r\n  // ctry = country(nm, continents(cont), pop);\r\n  // ctry = country({name:nm, continent:continents(cont), populationInMillion:pop});\r\n  ctry.name = nm;\r\n  ctry.continent = continents(cont);\r\n  ctry.populationInMillion = pop;\r\n  // Push the country in the array\r\n  europeanCountries.push(ctry);\r\n  return true;\r\n } \r\n\r\n\r\n\r\n function addCapital(string country, string capital){\r\n   // Store the capital on per country basis\r\n   capitals[country] = capital;\r\n }\r\n // Returns the capital for the country \r\n function getCapital(string country) returns (string){\r\n   return capitals[country];\r\n }\r\n // Remove the key value pair from the mapping\r\n function removeCapital(string country){\r\n   delete(capitals[country]);\r\n }\r\n\r\n // get the value at specified index\r\n function getContinent(uint8 arg) returns (string){\r\n  if(arg == uint8(continents.Africa)) return \"Africa\";\r\n  if(arg == uint8(continents.Antartica)) return \"Antartica\";\r\n  if(arg == uint8(continents.Asia)) return \"Asia\";\r\n  if(arg == uint8(continents.Australia)) return \"Australia\";\r\n  if(arg == uint8(continents.Europe)) return \"Europe\";\r\n  if(arg == uint8(continents.North_America)) return \"North America\";\r\n  if(arg == uint8(continents.South_America)) return \"South America\";\r\n }\r\n\r\n}\r\n",
  "sourcePath": "C:\\Users\\Rajeev\\Documents\\Course\\Blockchain Course\\workspace\\Blockchain-Course-Basic-Solidity\\contracts\\MappingEnumStruct.sol",
  "compiler": {
    "name": "solc",
    "version": "0.4.18+commit.9cf6e910.Emscripten.clang"
  },
  "schemaVersion": "2.0.0",
  "updatedAt": "2018-04-20T12:26:58.070Z"
}