{
  "contractName": "Modifiers",
  "abi": [
    {
      "constant": false,
      "inputs": [],
      "name": "checkOwnership",
      "outputs": [
        {
          "name": "",
          "type": "bool"
        }
      ],
      "payable": false,
      "type": "function",
      "stateMutability": "nonpayable"
    },
    {
      "constant": true,
      "inputs": [],
      "name": "testMod",
      "outputs": [
        {
          "name": "",
          "type": "uint256"
        }
      ],
      "payable": false,
      "type": "function",
      "stateMutability": "view"
    },
    {
      "constant": false,
      "inputs": [],
      "name": "testModifiers",
      "outputs": [],
      "payable": false,
      "type": "function",
      "stateMutability": "nonpayable"
    },
    {
      "constant": false,
      "inputs": [],
      "name": "bidForOwnership",
      "outputs": [
        {
          "name": "",
          "type": "bool"
        }
      ],
      "payable": true,
      "type": "function",
      "stateMutability": "payable"
    },
    {
      "constant": true,
      "inputs": [],
      "name": "owner",
      "outputs": [
        {
          "name": "",
          "type": "address"
        }
      ],
      "payable": false,
      "type": "function",
      "stateMutability": "view"
    },
    {
      "constant": false,
      "inputs": [
        {
          "name": "newOwner",
          "type": "address"
        }
      ],
      "name": "transferOwnership",
      "outputs": [
        {
          "name": "",
          "type": "bool"
        }
      ],
      "payable": false,
      "type": "function",
      "stateMutability": "nonpayable"
    },
    {
      "inputs": [],
      "payable": false,
      "type": "constructor",
      "stateMutability": "nonpayable"
    }
  ],
  "bytecode": "0x60606040526000600355341561001457600080fd5b336000806101000a81548173ffffffffffffffffffffffffffffffffffffffff021916908373ffffffffffffffffffffffffffffffffffffffff160217905550610335806100636000396000f300606060405260043610610078576000357c0100000000000000000000000000000000000000000000000000000000900463ffffffff168063219a1d771461007d578063291b19f2146100aa5780635a043dcd146100d357806360ace1ec146100e85780638da5cb5b1461010a578063f2fde38b1461015f575b600080fd5b341561008857600080fd5b6100906101b0565b604051808215151515815260200191505060405180910390f35b34156100b557600080fd5b6100bd610207565b6040518082815260200191505060405180910390f35b34156100de57600080fd5b6100e661020d565b005b6100f0610221565b604051808215151515815260200191505060405180910390f35b341561011557600080fd5b61011d61023e565b604051808273ffffffffffffffffffffffffffffffffffffffff1673ffffffffffffffffffffffffffffffffffffffff16815260200191505060405180910390f35b341561016a57600080fd5b610196600480803573ffffffffffffffffffffffffffffffffffffffff16906020019091905050610263565b604051808215151515815260200191505060405180910390f35b60008060009054906101000a900473ffffffffffffffffffffffffffffffffffffffff1673ffffffffffffffffffffffffffffffffffffffff163373ffffffffffffffffffffffffffffffffffffffff1614905090565b60035481565b600360008154809291906001019190505550565b6000606434101515610236576001905061023b565b600080fd5b90565b6000809054906101000a900473ffffffffffffffffffffffffffffffffffffffff1681565b60008060009054906101000a900473ffffffffffffffffffffffffffffffffffffffff1673ffffffffffffffffffffffffffffffffffffffff163373ffffffffffffffffffffffffffffffffffffffff1614156102ff57816000806101000a81548173ffffffffffffffffffffffffffffffffffffffff021916908373ffffffffffffffffffffffffffffffffffffffff160217905550610304565b600080fd5b9190505600a165627a7a72305820e9c709407557ddf1491dff6dc065edd7b4545c1be006946cf10de1b949733e1b0029",
  "source": "pragma solidity ^0.4.4;\r\n\r\n/**\r\n * Demonstrates the use of modifiers\r\n **/\r\ncontract Modifiers {\r\n  \r\n  address   public owner;\r\n  // Minimum acceptable offer\r\n  uint  constant  minimumAccetableOffer = 100;\r\n  uint[]          lastBid;\r\n  address[]       lastBidder;\r\n\r\n  function  Modifiers(){\r\n    owner = msg.sender;\r\n  }\r\n\r\n  // Restricts execution by owner only\r\n  modifier  ownerOnly {\r\n    if(msg.sender == owner){\r\n      _;\r\n    } else {\r\n      /**throw;*Deprecated*/\r\n      revert();\r\n    }\r\n  }\r\n\r\n   modifier  minimumAcceptable(){\r\n    if(msg.value >= minimumAccetableOffer){\r\n     _;\r\n    } else {\r\n      /**throw;*Deprecated*/\r\n      revert();\r\n    }\r\n  }\r\n\r\n  // Checks if the caller is the owner\r\n  function  checkOwnership() returns(bool) {\r\n    return  (msg.sender == owner);\r\n  }\r\n\r\n  function  transferOwnership(address newOwner) ownerOnly returns(bool){\r\n    owner = newOwner;\r\n  }\r\n\r\n\r\n  function  bidForOwnership() payable minimumAcceptable returns(bool)  {\r\n    // Code the bid pushing\r\n    return true;\r\n  }\r\n\r\n  // Code for testing mutiple modifiers\r\n  uint  public testMod = 0;\r\n  modifier mod1(){\r\n    _;\r\n  }\r\n\r\n  modifier mod2(){\r\n    _;\r\n  }\r\n\r\n  function  testModifiers()  mod1  mod2{\r\n    testMod++;\r\n  }\r\n}\r\n",
  "sourcePath": "C:\\Users\\Rajeev\\Documents\\Course\\Blockchain Course\\workspace\\Blockchain-Course-Basic-Solidity\\contracts\\Modifiers.sol",
  "compiler": {
    "name": "solc",
    "version": "0.4.18+commit.9cf6e910.Emscripten.clang"
  },
  "schemaVersion": "2.0.0",
  "updatedAt": "2018-04-20T12:26:58.075Z"
}