{
  "contractName": "ObjectOrientation",
  "abi": [
    {
      "constant": false,
      "inputs": [
        {
          "name": "s1",
          "type": "string"
        },
        {
          "name": "s2",
          "type": "string"
        }
      ],
      "name": "concatenate",
      "outputs": [
        {
          "name": "",
          "type": "string"
        }
      ],
      "payable": false,
      "type": "function",
      "stateMutability": "nonpayable"
    },
    {
      "constant": false,
      "inputs": [],
      "name": "getAgentInformation",
      "outputs": [
        {
          "name": "name",
          "type": "string"
        },
        {
          "name": "commission",
          "type": "uint256"
        }
      ],
      "payable": false,
      "type": "function",
      "stateMutability": "nonpayable"
    },
    {
      "constant": false,
      "inputs": [
        {
          "name": "greaterThan",
          "type": "uint8"
        }
      ],
      "name": "getOwnerInfo",
      "outputs": [
        {
          "name": "name",
          "type": "string"
        },
        {
          "name": "age",
          "type": "uint8"
        }
      ],
      "payable": false,
      "type": "function",
      "stateMutability": "nonpayable"
    },
    {
      "constant": false,
      "inputs": [
        {
          "name": "saleAmount",
          "type": "uint16"
        }
      ],
      "name": "calculateAgentCommission",
      "outputs": [],
      "payable": false,
      "type": "function",
      "stateMutability": "nonpayable"
    },
    {
      "constant": false,
      "inputs": [],
      "name": "getOwnerInfo",
      "outputs": [
        {
          "name": "name",
          "type": "string"
        },
        {
          "name": "age",
          "type": "uint8"
        }
      ],
      "payable": false,
      "type": "function",
      "stateMutability": "nonpayable"
    },
    {
      "inputs": [
        {
          "name": "agentName",
          "type": "string"
        },
        {
          "name": "rate",
          "type": "uint8"
        }
      ],
      "payable": false,
      "type": "constructor",
      "stateMutability": "nonpayable"
    }
  ],
  "bytecode": "0x6060604052341561000f57600080fd5b6040516107f43803806107f4833981016040528080518201919060200180519060200190919050508180600080019080519060200190610050929190610074565b505080600260006101000a81548160ff021916908360ff1602179055505050610119565b828054600181600116156101000203166002900490600052602060002090601f016020900481019282601f106100b557805160ff19168380011785556100e3565b828001600101855582156100e3579182015b828111156100e25782518255916020019190600101906100c7565b5b5090506100f091906100f4565b5090565b61011691905b808211156101125760008160009055506001016100fa565b5090565b90565b6106cc806101286000396000f30060606040526004361061006d576000357c0100000000000000000000000000000000000000000000000000000000900463ffffffff168063266001d314610072578063acdc57fd1461018b578063af7bfc7814610220578063d1d75927146102cc578063facf8323146102f3575b600080fd5b341561007d57600080fd5b610110600480803590602001908201803590602001908080601f0160208091040260200160405190810160405280939291908181526020018383808284378201915050505050509190803590602001908201803590602001908080601f0160208091040260200160405190810160405280939291908181526020018383808284378201915050505050509190505061038e565b6040518080602001828103825283818151815260200191508051906020019080838360005b83811015610150578082015181840152602081019050610135565b50505050905090810190601f16801561017d5780820380516001836020036101000a031916815260200191505b509250505060405180910390f35b341561019657600080fd5b61019e61056e565b6040518080602001838152602001828103825284818151815260200191508051906020019080838360005b838110156101e45780820151818401526020810190506101c9565b50505050905090810190601f1680156102115780820380516001836020036101000a031916815260200191505b50935050505060405180910390f35b341561022b57600080fd5b610244600480803560ff16906020019091905050610623565b60405180806020018360ff1660ff168152602001828103825284818151815260200191508051906020019080838360005b83811015610290578082015181840152602081019050610275565b50505050905090810190601f1680156102bd5780820380516001836020036101000a031916815260200191505b50935050505060405180910390f35b34156102d757600080fd5b6102f1600480803561ffff16906020019091905050610632565b005b34156102fe57600080fd5b61030661066a565b60405180806020018360ff1660ff168152602001828103825284818151815260200191508051906020019080838360005b83811015610352578082015181840152602081019050610337565b50505050905090810190601f16801561037f5780820380516001836020036101000a031916815260200191505b50935050505060405180910390f35b610396610678565b61039e61068c565b6103a661068c565b6103ae610678565b6103b661068c565b60008088955087945084518651016040518059106103d15750595b9080825280601f01601f1916602001820160405250935083925060009150600090505b85518110156104a757858181518110151561040b57fe5b9060200101517f010000000000000000000000000000000000000000000000000000000000000090047f010000000000000000000000000000000000000000000000000000000000000002838380600101945081518110151561046a57fe5b9060200101907effffffffffffffffffffffffffffffffffffffffffffffffffffffffffffff1916908160001a90535080806001019150506103f4565b600090505b845181101561055f5784818151811015156104c357fe5b9060200101517f010000000000000000000000000000000000000000000000000000000000000090047f010000000000000000000000000000000000000000000000000000000000000002838380600101945081518110151561052257fe5b9060200101907effffffffffffffffffffffffffffffffffffffffffffffffffffffffffffff1916908160001a90535080806001019150506104ac565b82965050505050505092915050565b610576610678565b6000806000018054600181600116156101000203166002900480601f0160208091040260200160405190810160405280929190818152602001828054600181600116156101000203166002900480156106105780601f106105e557610100808354040283529160200191610610565b820191906000526020600020905b8154815290600101906020018083116105f357829003601f168201915b5050505050915060006001015490509091565b61062b610678565b6000915091565b606481600260009054906101000a900460ff1660640160ff160261ffff1681151561065957fe5b0461ffff1660006001018190555050565b610672610678565b60009091565b602060405190810160405280600081525090565b6020604051908101604052806000815250905600a165627a7a72305820f56adbdf9c346c1fb42d83c8c0626a37651e14d1efa10321d2d36ae0546d05850029",
  "source": "pragma solidity ^0.4.4;\r\n\r\nimport \"./AbstractContract.sol\";\r\nimport \"./UtilContract.sol\";\r\n\r\n// Demonstrates Solidity's support for object orientation\r\ncontract ObjectOrientation is AbstractContract, UtilContract {\r\n\r\n  uint8   commissionRate;\r\n\r\n  // Constructor inokes the constructor of the base class\r\n  function ObjectOrientation(string agentName, uint8 rate) AbstractContract(agentName) {\r\n    commissionRate = rate;\r\n  }\r\n\r\n  // This function has to be implemented otherwise this contract will be abstract\r\n  function  calculateAgentCommission(uint16 saleAmount)  {\r\n    // The commissionRate is in percentage\r\n    agent.commission = ((100 + commissionRate)*saleAmount)/100;\r\n  }\r\n\r\n  // OVERLOADING - following two functions have the same name\r\n  function  getOwnerInfo() returns (string name, uint8 age){\r\n  }\r\n  \r\n  function  getOwnerInfo(uint8 greaterThan) returns (string name, uint8 age){\r\n  }\r\n}\r\n",
  "sourcePath": "C:\\Users\\Rajeev\\Documents\\Course\\Blockchain Course\\workspace\\Blockchain-Course-Basic-Solidity\\contracts\\ObjectOrientation.sol",
  "compiler": {
    "name": "solc",
    "version": "0.4.18+commit.9cf6e910.Emscripten.clang"
  },
  "schemaVersion": "1.0.1",
  "updatedAt": "2017-11-06T22:12:39.424Z"
}