{
  "contractName": "SpecialArrays",
  "abi": [
    {
      "constant": true,
      "inputs": [],
      "name": "conversionTest",
      "outputs": [
        {
          "name": "",
          "type": "string"
        }
      ],
      "payable": false,
      "stateMutability": "pure",
      "type": "function"
    },
    {
      "constant": true,
      "inputs": [
        {
          "name": "index",
          "type": "uint256"
        }
      ],
      "name": "getElementAt",
      "outputs": [
        {
          "name": "",
          "type": "bytes1"
        }
      ],
      "payable": false,
      "stateMutability": "view",
      "type": "function"
    },
    {
      "constant": false,
      "inputs": [],
      "name": "testAssignment",
      "outputs": [],
      "payable": false,
      "stateMutability": "nonpayable",
      "type": "function"
    },
    {
      "constant": false,
      "inputs": [],
      "name": "stringLiterals",
      "outputs": [],
      "payable": false,
      "stateMutability": "nonpayable",
      "type": "function"
    }
  ],
  "bytecode": "0x60606040526040805190810160405280600581526020017f61626364650000000000000000000000000000000000000000000000000000008152506004908051906020019061004f929190610060565b50341561005b57600080fd5b610105565b828054600181600116156101000203166002900490600052602060002090601f016020900481019282601f106100a157805160ff19168380011785556100cf565b828001600101855582156100cf579182015b828111156100ce5782518255916020019190600101906100b3565b5b5090506100dc91906100e0565b5090565b61010291905b808211156100fe5760008160009055506001016100e6565b5090565b90565b610e21806101146000396000f300606060405260043610610062576000357c0100000000000000000000000000000000000000000000000000000000900463ffffffff168063706c10201461006757806392a336301461007c578063a1b917b01461010a578063d8a865f61461011f575b600080fd5b341561007257600080fd5b61007a61019a565b005b341561008757600080fd5b61008f6106ce565b6040518080602001828103825283818151815260200191508051906020019080838360005b838110156100cf5780820151818401526020810190506100b4565b50505050905090810190601f1680156100fc5780820380516001836020036101000a031916815260200191505b509250505060405180910390f35b341561011557600080fd5b61011d610729565b005b341561012a57600080fd5b610140600480803590602001909190505061089f565b60405180827effffffffffffffffffffffffffffffffffffffffffffffffffffffffffffff19167effffffffffffffffffffffffffffffffffffffffffffffffffffffffffffff1916815260200191505060405180910390f35b6101a26109ad565b60606040519081016040528060017f0100000000000000000000000000000000000000000000000000000000000000027effffffffffffffffffffffffffffffffffffffffffffffffffffffffffffff19167effffffffffffffffffffffffffffffffffffffffffffffffffffffffffffff1916815260200160027f0100000000000000000000000000000000000000000000000000000000000000027effffffffffffffffffffffffffffffffffffffffffffffffffffffffffffff1916815260200160037f0100000000000000000000000000000000000000000000000000000000000000027effffffffffffffffffffffffffffffffffffffffffffffffffffffffffffff191681525060009060036102bf9291906109c1565b5060057f0100000000000000000000000000000000000000000000000000000000000000026000806003811015156102f357fe5b602091828204019190066101000a81548160ff02191690837f01000000000000000000000000000000000000000000000000000000000000009004021790555060046040518059106103425750595b908082528060200260200182016040525060029080519060200190610368929190610a7b565b5060806040519081016040528060017f0100000000000000000000000000000000000000000000000000000000000000027effffffffffffffffffffffffffffffffffffffffffffffffffffffffffffff19167effffffffffffffffffffffffffffffffffffffffffffffffffffffffffffff1916815260200160027f0100000000000000000000000000000000000000000000000000000000000000027effffffffffffffffffffffffffffffffffffffffffffffffffffffffffffff1916815260200160037f0100000000000000000000000000000000000000000000000000000000000000027effffffffffffffffffffffffffffffffffffffffffffffffffffffffffffff1916815260200160047f0100000000000000000000000000000000000000000000000000000000000000027effffffffffffffffffffffffffffffffffffffffffffffffffffffffffffff191681525060029060046104d1929190610b42565b5060017f0100000000000000000000000000000000000000000000000000000000000000026002600081548110151561050657fe5b90600052602060002090602091828204019190066101000a81548160ff02191690837f010000000000000000000000000000000000000000000000000000000000000090040217905550600560028161055f9190610c09565b50600460405180591061056f5750595b9080825280601f01601f191660200182016040525060039080519060200190610599929190610c43565b5060017f01000000000000000000000000000000000000000000000000000000000000000260038081546001816001161561010002031660029004811015156105de57fe5b8154600116156105fd5790600052602060002090602091828204019190065b601f036101000a81548160ff021916907f01000000000000000000000000000000000000000000000000000000000000008404021790555060056003816106449190610cc3565b5060146040518059106106545750595b9080825280601f01601f191660200182016040525090507f610000000000000000000000000000000000000000000000000000000000000081600081518110151561069b57fe5b9060200101907effffffffffffffffffffffffffffffffffffffffffffffffffffffffffffff1916908160001a90535050565b6106d6610d8c565b6106de6109ad565b6106e6610d8c565b6040805190810160405280601181526020017f48656c6c6f20536f6c69646974792121210000000000000000000000000000008152509150819050809250505090565b610731610d8c565b610739610d8c565b610741610d8c565b610749610d8c565b610751610d8c565b610759610d8c565b6040805190810160405280600581526020017f616263646500000000000000000000000000000000000000000000000000000081525095506040805190810160405280600381526020017f01010a000000000000000000000000000000000000000000000000000000000081525094506040805190810160405280600181526020017f0a0000000000000000000000000000000000000000000000000000000000000081525093506040805190810160405280600381526020017f013031000000000000000000000000000000000000000000000000000000000081525092506040805190810160405280600381526020017fe0a88a0000000000000000000000000000000000000000000000000000000000815250915060086040518059106108805750595b9080825280601f01601f19166020018201604052509050505050505050565b60006108a96109ad565b600060048054600181600116156101000203166002900480601f0160208091040260200160405190810160405280929190818152602001828054600181600116156101000203166002900480156109415780601f1061091657610100808354040283529160200191610941565b820191906000526020600020905b81548152906001019060200180831161092457829003601f168201915b50505050509150818481518110151561095657fe5b9060200101517f010000000000000000000000000000000000000000000000000000000000000090047f01000000000000000000000000000000000000000000000000000000000000000290508092505050919050565b602060405190810160405280600081525090565b826003601f01602090048101928215610a6a5791602002820160005b83821115610a3b57835183826101000a81548160ff02191690837f01000000000000000000000000000000000000000000000000000000000000009004021790555092602001926001016020816000010492830192600103026109dd565b8015610a685782816101000a81549060ff0219169055600101602081600001049283019260010302610a3b565b505b509050610a779190610da0565b5090565b82805482825590600052602060002090601f01602090048101928215610b315791602002820160005b83821115610b0257835183826101000a81548160ff02191690837f0100000000000000000000000000000000000000000000000000000000000000900402179055509260200192600101602081600001049283019260010302610aa4565b8015610b2f5782816101000a81549060ff0219169055600101602081600001049283019260010302610b02565b505b509050610b3e9190610da0565b5090565b82805482825590600052602060002090601f01602090048101928215610bf85791602002820160005b83821115610bc957835183826101000a81548160ff02191690837f0100000000000000000000000000000000000000000000000000000000000000900402179055509260200192600101602081600001049283019260010302610b6b565b8015610bf65782816101000a81549060ff0219169055600101602081600001049283019260010302610bc9565b505b509050610c059190610da0565b5090565b815481835581811511610c3e57601f016020900481601f01602090048360005260206000209182019101610c3d9190610dd0565b5b505050565b828054600181600116156101000203166002900490600052602060002090601f016020900481019282601f10610c8457805160ff1916838001178555610cb2565b82800160010185558215610cb2579182015b82811115610cb1578251825591602001919060010190610c96565b5b509050610cbf9190610dd0565b5090565b81546001816001161561010002031660029004825481601f10610d1e5782601f10610d03575b826008026101000360020a80910402828001178355610d87565b60ff1916836000526020600020558180016001018355610d87565b82601f10610d4e575082600052602060002080549082601f0160209004810190610d489190610dd0565b50610ce9565b50818001600101835581811511610d8757601f016020900481601f01602090048360005260206000209182019101610d869190610dd0565b5b505050565b602060405190810160405280600081525090565b610dcd91905b80821115610dc957600081816101000a81549060ff021916905550600101610da6565b5090565b90565b610df291905b80821115610dee576000816000905550600101610dd6565b5090565b905600a165627a7a72305820c61cc166f83c4270d2bff3ad944383b27f03d271326a1d6a040776596021f06e0029",
  "source": "pragma solidity ^0.4.4;\n\n/**\n * Demonstrates the use of bytes byte[] and string\n * \n * Ignore keyword pure & view for the time being - its added to suppress warning \n * related to mutability - later you will learn about these keywords in details\n **/\n\ncontract SpecialArrays {\n\n  // Static or fixed length byte arrays\n  // Both declarations will create array with 3 byte elements\n  byte[3]    fixedByteArray;\n  bytes3     bytes3Array;\n\n  // Dynamic bytes arrays\n  byte[]    dynamicByteArray;\n  bytes     bytesArray;\n\n  // String variable\n  string    stringStorage = \"abcde\";\n\n  // Converts the bytes to string\n  function conversionTest() public pure returns(string) {\n    bytes   memory helloSolidity = \"Hello Solidity!!!\";\n    string  memory converted = string(helloSolidity);\n    return converted;\n  }\n\n\n  // Retrieves the element at specified index \n  function  getElementAt(uint index) public view returns(byte) {\n    // Convert string to bytes\n    bytes  memory bytesData = bytes(stringStorage);\n    // Get the element at the specified index\n    byte   element = bytesData[index];\n\n    return element;\n  }\n\n\n  function  testAssignment() public {\n    // uint8 need to be explicitly converted to byte type\n    fixedByteArray = [byte(1),2,3];\n    fixedByteArray[0] = 0x05;\n\n    // Assignment NOT allowed as bytes3Array is readonly\n    // bytes3Array    = [byte(1),2,3];\n    // bytes3Array[0] = 1;\n    \n    // Dynamic Array\n    // Create with new\n    dynamicByteArray = new byte[](4);\n    dynamicByteArray = [byte(1),2,3,4];\n    dynamicByteArray[0] = 0x01;\n    dynamicByteArray.length = 5;\n\n    // Allocate 4 bytes for the dynamic bytes array\n    bytesArray = new bytes(4);\n    // Fails to compile\n    // bytesArray = [byte(1),2,3,4];\n    bytesArray[3] = 0x01;\n    bytesArray.length = 5;\n\n    // Memory bytes\n    bytes memory memoryBytes;\n    memoryBytes = new bytes(20);\n    memoryBytes[0] = \"a\";\n    // Push will give compiler error as push() allowed for storage only\n    // memoryBytes.push('c');\n  }\n\n  function stringLiterals() public {\n    // Storage pointer must be initialized - so following will give an error\n    // string pointer;\n    string memory asciiString = \"abcde\";  \n    string memory hexString = hex\"01010A\";\n    // This one would fail because of invalid hex value\n    // string memory hexString = hex\"01010\";\n\n    string memory escString = \"\\n\";\n    string memory utfHexString = '\\x0101';\n    string memory utfString = \"\\u0A0A\";\n    // Allocate memory for 8 characters\n    string memory some = new string(8); \n    // Push for string not supporte - so this would fail\n    // some.push('a');\n    // Indexed access to string is not possible\n    // This would give an error\n    // some[0] = 'a';\n  }\n  \n\n}\n",
  "sourcePath": "C:\\Users\\Rajeev\\Documents\\Course\\Blockchain Course\\workspace\\Blockchain-Course-Basic-Solidity\\contracts\\SpecialArrays.sol",
  "compiler": {
    "name": "solc",
    "version": "0.4.19+commit.c4cbbb05.Emscripten.clang"
  },
  "schemaVersion": "2.0.0",
  "updatedAt": "2018-04-20T12:26:58.073Z"
}