{
  "contractName": "String",
  "abi": [
    {
      "constant": true,
      "inputs": [],
      "name": "bome",
      "outputs": [
        {
          "name": "",
          "type": "bytes"
        }
      ],
      "payable": false,
      "type": "function",
      "stateMutability": "view"
    },
    {
      "constant": true,
      "inputs": [],
      "name": "some",
      "outputs": [
        {
          "name": "",
          "type": "string"
        }
      ],
      "payable": false,
      "type": "function",
      "stateMutability": "view"
    },
    {
      "inputs": [],
      "payable": false,
      "type": "constructor",
      "stateMutability": "nonpayable"
    }
  ],
  "bytecode": "0x6060604052341561000f57600080fd5b6040805190810160405280601281526020017f536f6c69646974792069732046554e21212100000000000000000000000000008152506001908051906020019061005a929190610120565b5060016000908054600181600116156101000203166002900461007e9291906101a0565b5060017f0100000000000000000000000000000000000000000000000000000000000000026001600081546001816001161561010002031660029004811015156100c457fe5b8154600116156100e35790600052602060002090602091828204019190065b601f036101000a81548160ff021916907f01000000000000000000000000000000000000000000000000000000000000008404021790555061024c565b828054600181600116156101000203166002900490600052602060002090601f016020900481019282601f1061016157805160ff191683800117855561018f565b8280016001018555821561018f579182015b8281111561018e578251825591602001919060010190610173565b5b50905061019c9190610227565b5090565b828054600181600116156101000203166002900490600052602060002090601f016020900481019282601f106101d95780548555610216565b8280016001018555821561021657600052602060002091601f016020900482015b828111156102155782548255916001019190600101906101fa565b5b5090506102239190610227565b5090565b61024991905b8082111561024557600081600090555060010161022d565b5090565b90565b6102d58061025b6000396000f30060606040526004361061004c576000357c0100000000000000000000000000000000000000000000000000000000900463ffffffff1680635c69f9da14610051578063c03ee3d3146100df575b600080fd5b341561005c57600080fd5b61006461016d565b6040518080602001828103825283818151815260200191508051906020019080838360005b838110156100a4578082015181840152602081019050610089565b50505050905090810190601f1680156100d15780820380516001836020036101000a031916815260200191505b509250505060405180910390f35b34156100ea57600080fd5b6100f261020b565b6040518080602001828103825283818151815260200191508051906020019080838360005b83811015610132578082015181840152602081019050610117565b50505050905090810190601f16801561015f5780820380516001836020036101000a031916815260200191505b509250505060405180910390f35b60018054600181600116156101000203166002900480601f0160208091040260200160405190810160405280929190818152602001828054600181600116156101000203166002900480156102035780601f106101d857610100808354040283529160200191610203565b820191906000526020600020905b8154815290600101906020018083116101e657829003601f168201915b505050505081565b60008054600181600116156101000203166002900480601f0160208091040260200160405190810160405280929190818152602001828054600181600116156101000203166002900480156102a15780601f10610276576101008083540402835291602001916102a1565b820191906000526020600020905b81548152906001019060200180831161028457829003601f168201915b5050505050815600a165627a7a723058202b214c594a08decbe5739a664db56dd5fcc4734cb81cb45b078b20050deab5c20029",
  "source": "pragma solidity ^0.4.4;\r\n\r\n/**\r\n * Demonstrates the use of string\r\n **/\r\ncontract String {\r\n\r\n  string  public  some;\r\n  bytes   public  bome;\r\n\r\n  function String() {\r\n    // constructor\r\n    bome=\"Solidity is FUN!!!\";\r\n    // bome=bytes(some);\r\n    some=string(bome);\r\n\r\n    bome[0]=0x01;\r\n  }\r\n}\r\n\r\n    // // Dynamic bytes array to string\r\n    // string  data  = string(bytes_array);\r\n\r\n    // // Fixed length bytes array to string\r\n    // string  data  = string(bytes1_array);\r\n\r\n    // string  data  = string(bytes32_array);\r\n\r\n\r\n    // // String to bytes\r\n    // bytes   data  = bytes(string_data);\r\n\r\n\r\n",
  "sourcePath": "C:\\Users\\Rajeev\\Documents\\Course\\Blockchain Course\\workspace\\Blockchain-Course-Basic-Solidity\\contracts\\String.sol",
  "compiler": {
    "name": "solc",
    "version": "0.4.18+commit.9cf6e910.Emscripten.clang"
  },
  "schemaVersion": "1.0.1",
  "updatedAt": "2018-01-22T19:34:44.835Z"
}