{
  "contractName": "UtilContract",
  "abi": [
    {
      "constant": true,
      "inputs": [
        {
          "name": "s1",
          "type": "string"
        },
        {
          "name": "s2",
          "type": "string"
        }
      ],
      "name": "concatenate",
      "outputs": [
        {
          "name": "",
          "type": "string"
        }
      ],
      "payable": false,
      "stateMutability": "pure",
      "type": "function"
    }
  ],
  "bytecode": "0x6060604052341561000f57600080fd5b6103938061001e6000396000f300606060405260043610610041576000357c0100000000000000000000000000000000000000000000000000000000900463ffffffff168063266001d314610046575b600080fd5b341561005157600080fd5b6100e4600480803590602001908201803590602001908080601f0160208091040260200160405190810160405280939291908181526020018383808284378201915050505050509190803590602001908201803590602001908080601f0160208091040260200160405190810160405280939291908181526020018383808284378201915050505050509190505061015f565b6040518080602001828103825283818151815260200191508051906020019080838360005b83811015610124578082015181840152602081019050610109565b50505050905090810190601f1680156101515780820380516001836020036101000a031916815260200191505b509250505060405180910390f35b61016761033f565b61016f610353565b610177610353565b61017f61033f565b610187610353565b60008088955087945084518651016040518059106101a25750595b9080825280601f01601f1916602001820160405250935083925060009150600090505b85518110156102785785818151811015156101dc57fe5b9060200101517f010000000000000000000000000000000000000000000000000000000000000090047f010000000000000000000000000000000000000000000000000000000000000002838380600101945081518110151561023b57fe5b9060200101907effffffffffffffffffffffffffffffffffffffffffffffffffffffffffffff1916908160001a90535080806001019150506101c5565b600090505b845181101561033057848181518110151561029457fe5b9060200101517f010000000000000000000000000000000000000000000000000000000000000090047f01000000000000000000000000000000000000000000000000000000000000000283838060010194508151811015156102f357fe5b9060200101907effffffffffffffffffffffffffffffffffffffffffffffffffffffffffffff1916908160001a905350808060010191505061027d565b82965050505050505092915050565b602060405190810160405280600081525090565b6020604051908101604052806000815250905600a165627a7a7230582082cde8cb3c008adea361c040f44d19dd2ee0b639e42ae0c59be5551da701d17e0029",
  "source": "pragma solidity ^0.4.4;\r\n\r\n// Utilities for contracts\r\ncontract UtilContract {\r\n\r\n  // Concatenates strings\r\n  // Perfect example of a \"pure\" function - no reference to any storage\r\n  function  concatenate(string s1, string s2) public pure returns(string) {\r\n\r\n    bytes memory a = bytes(s1);\r\n    bytes memory b = bytes(s2);\r\n    string memory concat = new string(a.length+b.length);\r\n    bytes  memory bm = bytes(concat);\r\n    uint k = 0;\r\n\r\n    for (uint i = 0; i < a.length; i++) {\r\n      bm[k++] = a[i];\r\n    }\r\n\r\n    for (i = 0; i < b.length; i++) {\r\n      bm[k++] = b[i];\r\n    }\r\n\r\n    return string(bm);\r\n  }\r\n}\r\n",
  "sourcePath": "C:\\Users\\Rajeev\\Documents\\Course\\Blockchain Course\\workspace\\Blockchain-Course-Basic-Solidity\\contracts\\UtilContract.sol",
  "compiler": {
    "name": "solc",
    "version": "0.4.19+commit.c4cbbb05.Emscripten.clang"
  },
  "schemaVersion": "2.0.0",
  "updatedAt": "2018-03-02T18:58:16.479Z"
}